{
  "_format": "hh-sol-artifact-1",
  "contractName": "MarketListing",
  "sourceName": "contracts/MarketListing.sol",
  "abi": [
    {
      "anonymous": false,
      "inputs": [
        {
          "indexed": true,
          "internalType": "uint256",
          "name": "itemId",
          "type": "uint256"
        },
        {
          "indexed": true,
          "internalType": "uint256",
          "name": "tokenId",
          "type": "uint256"
        },
        {
          "indexed": false,
          "internalType": "uint256",
          "name": "price",
          "type": "uint256"
        },
        {
          "indexed": true,
          "internalType": "address",
          "name": "nftContract",
          "type": "address"
        },
        {
          "indexed": false,
          "internalType": "address",
          "name": "seller",
          "type": "address"
        },
        {
          "indexed": false,
          "internalType": "address",
          "name": "owner",
          "type": "address"
        },
        {
          "indexed": false,
          "internalType": "string",
          "name": "status",
          "type": "string"
        }
      ],
      "name": "MarketItemCreated",
      "type": "event"
    },
    {
      "anonymous": false,
      "inputs": [
        {
          "indexed": true,
          "internalType": "uint256",
          "name": "itemId",
          "type": "uint256"
        },
        {
          "indexed": true,
          "internalType": "uint256",
          "name": "tokenId",
          "type": "uint256"
        },
        {
          "indexed": false,
          "internalType": "uint256",
          "name": "price",
          "type": "uint256"
        },
        {
          "indexed": true,
          "internalType": "address",
          "name": "nftContract",
          "type": "address"
        }
      ],
      "name": "MarketItemSold",
      "type": "event"
    },
    {
      "anonymous": false,
      "inputs": [
        {
          "indexed": false,
          "internalType": "uint256",
          "name": "tradeId",
          "type": "uint256"
        },
        {
          "indexed": false,
          "internalType": "uint256[]",
          "name": "offererItemsId",
          "type": "uint256[]"
        },
        {
          "indexed": false,
          "internalType": "uint256[]",
          "name": "offereeItemsId",
          "type": "uint256[]"
        },
        {
          "indexed": false,
          "internalType": "address",
          "name": "offerer",
          "type": "address"
        },
        {
          "indexed": false,
          "internalType": "address",
          "name": "offeree",
          "type": "address"
        },
        {
          "indexed": false,
          "internalType": "bool",
          "name": "closed",
          "type": "bool"
        }
      ],
      "name": "MarketTradeCreated",
      "type": "event"
    },
    {
      "inputs": [],
      "name": "_owner",
      "outputs": [
        {
          "internalType": "address payable",
          "name": "",
          "type": "address"
        }
      ],
      "stateMutability": "view",
      "type": "function"
    },
    {
      "inputs": [
        {
          "internalType": "uint256",
          "name": "_tradeOfferId",
          "type": "uint256"
        },
        {
          "internalType": "address",
          "name": "_nftContract",
          "type": "address"
        }
      ],
      "name": "approveTradeOffer",
      "outputs": [],
      "stateMutability": "nonpayable",
      "type": "function"
    },
    {
      "inputs": [
        {
          "internalType": "uint256[]",
          "name": "_offererItemId",
          "type": "uint256[]"
        },
        {
          "internalType": "uint256[]",
          "name": "_offereeItemId",
          "type": "uint256[]"
        },
        {
          "internalType": "address",
          "name": "_offeree",
          "type": "address"
        }
      ],
      "name": "createItemTradeOffer",
      "outputs": [],
      "stateMutability": "nonpayable",
      "type": "function"
    },
    {
      "inputs": [
        {
          "internalType": "address",
          "name": "_nftContract",
          "type": "address"
        },
        {
          "internalType": "uint256",
          "name": "_tokenId",
          "type": "uint256"
        },
        {
          "internalType": "uint256",
          "name": "_price",
          "type": "uint256"
        }
      ],
      "name": "createMarketItem",
      "outputs": [],
      "stateMutability": "payable",
      "type": "function"
    },
    {
      "inputs": [
        {
          "internalType": "address",
          "name": "_nftContract",
          "type": "address"
        },
        {
          "internalType": "uint256",
          "name": "_itemId",
          "type": "uint256"
        }
      ],
      "name": "createMarketItemSale",
      "outputs": [],
      "stateMutability": "payable",
      "type": "function"
    },
    {
      "inputs": [],
      "name": "getAllMarketItems",
      "outputs": [
        {
          "components": [
            {
              "internalType": "uint256",
              "name": "itemId",
              "type": "uint256"
            },
            {
              "internalType": "uint256",
              "name": "tokenId",
              "type": "uint256"
            },
            {
              "internalType": "uint256",
              "name": "price",
              "type": "uint256"
            },
            {
              "internalType": "address",
              "name": "nftContract",
              "type": "address"
            },
            {
              "internalType": "address payable",
              "name": "seller",
              "type": "address"
            },
            {
              "internalType": "address payable",
              "name": "owner",
              "type": "address"
            },
            {
              "internalType": "string",
              "name": "status",
              "type": "string"
            }
          ],
          "internalType": "struct MarketListing.MarketItem[]",
          "name": "",
          "type": "tuple[]"
        }
      ],
      "stateMutability": "view",
      "type": "function"
    },
    {
      "inputs": [
        {
          "internalType": "address",
          "name": "_user",
          "type": "address"
        }
      ],
      "name": "getUserTradeOffers",
      "outputs": [
        {
          "components": [
            {
              "internalType": "uint256",
              "name": "tradeId",
              "type": "uint256"
            },
            {
              "internalType": "uint256[]",
              "name": "offererItemsId",
              "type": "uint256[]"
            },
            {
              "internalType": "uint256[]",
              "name": "offereeItemsId",
              "type": "uint256[]"
            },
            {
              "internalType": "address",
              "name": "offerer",
              "type": "address"
            },
            {
              "internalType": "address",
              "name": "offeree",
              "type": "address"
            },
            {
              "internalType": "bool",
              "name": "closed",
              "type": "bool"
            }
          ],
          "internalType": "struct MarketListing.MarketTradeOffer[]",
          "name": "",
          "type": "tuple[]"
        }
      ],
      "stateMutability": "view",
      "type": "function"
    },
    {
      "inputs": [],
      "name": "itemListingPrice",
      "outputs": [
        {
          "internalType": "uint256",
          "name": "",
          "type": "uint256"
        }
      ],
      "stateMutability": "view",
      "type": "function"
    },
    {
      "inputs": [],
      "name": "owner",
      "outputs": [
        {
          "internalType": "address",
          "name": "",
          "type": "address"
        }
      ],
      "stateMutability": "view",
      "type": "function"
    },
    {
      "inputs": [
        {
          "internalType": "uint256",
          "name": "_price",
          "type": "uint256"
        }
      ],
      "name": "setListingPrice",
      "outputs": [],
      "stateMutability": "nonpayable",
      "type": "function"
    }
  ],
  "bytecode": "0x608060405266038d7ea4c6800060025534801561001b57600080fd5b50600160008190555033600160006101000a81548173ffffffffffffffffffffffffffffffffffffffff021916908373ffffffffffffffffffffffffffffffffffffffff1602179055506132f4806100746000396000f3fe6080604052600436106100915760003560e01c8063a425dd0911610059578063a425dd091461016e578063b2bdfa7b1461018a578063b58027aa146101b5578063f16d376c146101de578063f7e1ed551461020957610091565b806358eb2df5146100965780635dbdb27d146100b25780637c726b69146100ef5780638da5cb5b14610118578063a05edd3f14610143575b600080fd5b6100b060048036038101906100ab9190612343565b610232565b005b3480156100be57600080fd5b506100d960048036038101906100d491906122d6565b6105bd565b6040516100e69190612af9565b60405180910390f35b3480156100fb57600080fd5b5061011660048036038101906101119190612421565b610986565b005b34801561012457600080fd5b5061012d610a05565b60405161013a9190612a6a565b60405180910390f35b34801561014f57600080fd5b50610158610a2f565b6040516101659190612c4b565b60405180910390f35b61018860048036038101906101839190612303565b610a35565b005b34801561019657600080fd5b5061019f610d4e565b6040516101ac9190612a85565b60405180910390f35b3480156101c157600080fd5b506101dc60048036038101906101d7919061244e565b610d74565b005b3480156101ea57600080fd5b506101f361150d565b6040516102009190612ad7565b60405180910390f35b34801561021557600080fd5b50610230600480360381019061022b9190612396565b6117f7565b005b60026000541415610278576040517f08c379a000000000000000000000000000000000000000000000000000000000815260040161026f90612c2b565b60405180910390fd5b6002600081905550600081116102c3576040517f08c379a00000000000000000000000000000000000000000000000000000000081526004016102ba90612b6b565b60405180910390fd5b6102cd6003611f52565b60006102d96003611f68565b905061031a6040518060400160405280601f81526020017f63726561746564206d61726b6574206974656d20776974682069643a2025730081525082611f76565b6040518060e001604052808281526020018481526020018381526020018573ffffffffffffffffffffffffffffffffffffffff1681526020013373ffffffffffffffffffffffffffffffffffffffff168152602001600073ffffffffffffffffffffffffffffffffffffffff1681526020016040518060400160405280600981526020017f617661696c61626c6500000000000000000000000000000000000000000000008152508152506005600083815260200190815260200160002060008201518160000155602082015181600101556040820151816002015560608201518160030160006101000a81548173ffffffffffffffffffffffffffffffffffffffff021916908373ffffffffffffffffffffffffffffffffffffffff16021790555060808201518160040160006101000a81548173ffffffffffffffffffffffffffffffffffffffff021916908373ffffffffffffffffffffffffffffffffffffffff16021790555060a08201518160050160006101000a81548173ffffffffffffffffffffffffffffffffffffffff021916908373ffffffffffffffffffffffffffffffffffffffff16021790555060c08201518160060190805190602001906104e792919061203b565b509050508373ffffffffffffffffffffffffffffffffffffffff166323b872dd3330866040518463ffffffff1660e01b815260040161052893929190612aa0565b600060405180830381600087803b15801561054257600080fd5b505af1158015610556573d6000803e3d6000fd5b505050508373ffffffffffffffffffffffffffffffffffffffff1683827fcf656c30d2dad45451ecc5abdfc7fd644513e63ecdf8a58637b5c7473598cc13853360006040516105a793929190612c66565b60405180910390a4506001600081905550505050565b606060006105cb6004611f68565b90506000805b828110156106ea578473ffffffffffffffffffffffffffffffffffffffff16600660006001846106019190612e79565b815260200190815260200160002060040160009054906101000a900473ffffffffffffffffffffffffffffffffffffffff1673ffffffffffffffffffffffffffffffffffffffff1614806106c257508473ffffffffffffffffffffffffffffffffffffffff16600660006001846106789190612e79565b815260200190815260200160002060030160009054906101000a900473ffffffffffffffffffffffffffffffffffffffff1673ffffffffffffffffffffffffffffffffffffffff16145b156106d7576001826106d49190612e79565b91505b80806106e290612ff5565b9150506105d1565b506000808267ffffffffffffffff811115610708576107076130cb565b5b60405190808252806020026020018201604052801561074157816020015b61072e6120c1565b8152602001906001900390816107265790505b50905060005b84811015610979576000600660006001846107629190612e79565b81526020019081526020016000206040518060c001604052908160008201548152602001600182018054806020026020016040519081016040528092919081815260200182805480156107d457602002820191906000526020600020905b8154815260200190600101908083116107c0575b505050505081526020016002820180548060200260200160405190810160405280929190818152602001828054801561082c57602002820191906000526020600020905b815481526020019060010190808311610818575b505050505081526020016003820160009054906101000a900473ffffffffffffffffffffffffffffffffffffffff1673ffffffffffffffffffffffffffffffffffffffff1673ffffffffffffffffffffffffffffffffffffffff1681526020016004820160009054906101000a900473ffffffffffffffffffffffffffffffffffffffff1673ffffffffffffffffffffffffffffffffffffffff1673ffffffffffffffffffffffffffffffffffffffff1681526020016004820160149054906101000a900460ff16151515158152505090508773ffffffffffffffffffffffffffffffffffffffff16816080015173ffffffffffffffffffffffffffffffffffffffff161415610965578083858151811061094a5761094961309c565b5b60200260200101819052506001846109629190612e79565b93505b50808061097190612ff5565b915050610747565b5080945050505050919050565b3373ffffffffffffffffffffffffffffffffffffffff166109a5610a05565b73ffffffffffffffffffffffffffffffffffffffff16146109fb576040517f08c379a00000000000000000000000000000000000000000000000000000000081526004016109f290612bcb565b60405180910390fd5b8060028190555050565b6000600160009054906101000a900473ffffffffffffffffffffffffffffffffffffffff16905090565b60025481565b60026000541415610a7b576040517f08c379a0000000000000000000000000000000000000000000000000000000008152600401610a7290612c2b565b60405180910390fd5b60026000819055506000600560008381526020019081526020016000209050600081600201549050600082600101549050813414610aee576040517f08c379a0000000000000000000000000000000000000000000000000000000008152600401610ae590612bab565b60405180910390fd5b6040518060400160405280600981526020017f617661696c61626c6500000000000000000000000000000000000000000000008152508051906020012083600601604051610b3c9190612a53565b604051809103902014610b84576040517f08c379a0000000000000000000000000000000000000000000000000000000008152600401610b7b90612beb565b60405180910390fd5b8260040160009054906101000a900473ffffffffffffffffffffffffffffffffffffffff1673ffffffffffffffffffffffffffffffffffffffff166108fc349081150290604051600060405180830381858888f19350505050158015610bee573d6000803e3d6000fd5b508473ffffffffffffffffffffffffffffffffffffffff166323b872dd3033846040518463ffffffff1660e01b8152600401610c2c93929190612aa0565b600060405180830381600087803b158015610c4657600080fd5b505af1158015610c5a573d6000803e3d6000fd5b50505050338360050160006101000a81548173ffffffffffffffffffffffffffffffffffffffff021916908373ffffffffffffffffffffffffffffffffffffffff1602179055506040518060400160405280600481526020017f736f6c6400000000000000000000000000000000000000000000000000000000815250836006019080519060200190610cee92919061203b565b508473ffffffffffffffffffffffffffffffffffffffff1681857f63620c7091ccac79e9c3f37ed54d4260fe69fcfc8b25e642d99231efbd0c761d85604051610d379190612c4b565b60405180910390a450505060016000819055505050565b600160009054906101000a900473ffffffffffffffffffffffffffffffffffffffff1681565b60026000541415610dba576040517f08c379a0000000000000000000000000000000000000000000000000000000008152600401610db190612c2b565b60405180910390fd5b60026000819055506000600660008481526020019081526020016000206040518060c00160405290816000820154815260200160018201805480602002602001604051908101604052809291908181526020018280548015610e3b57602002820191906000526020600020905b815481526020019060010190808311610e27575b5050505050815260200160028201805480602002602001604051908101604052809291908181526020018280548015610e9357602002820191906000526020600020905b815481526020019060010190808311610e7f575b505050505081526020016003820160009054906101000a900473ffffffffffffffffffffffffffffffffffffffff1673ffffffffffffffffffffffffffffffffffffffff1673ffffffffffffffffffffffffffffffffffffffff1681526020016004820160009054906101000a900473ffffffffffffffffffffffffffffffffffffffff1673ffffffffffffffffffffffffffffffffffffffff1673ffffffffffffffffffffffffffffffffffffffff1681526020016004820160149054906101000a900460ff16151515158152505090503373ffffffffffffffffffffffffffffffffffffffff16816080015173ffffffffffffffffffffffffffffffffffffffff1614610fd7576040517f08c379a0000000000000000000000000000000000000000000000000000000008152600401610fce90612b8b565b60405180910390fd5b60005b81602001515181101561126057600060056000846020015184815181106110045761100361309c565b5b602002602001015181526020019081526020016000206040518060e00160405290816000820154815260200160018201548152602001600282015481526020016003820160009054906101000a900473ffffffffffffffffffffffffffffffffffffffff1673ffffffffffffffffffffffffffffffffffffffff1673ffffffffffffffffffffffffffffffffffffffff1681526020016004820160009054906101000a900473ffffffffffffffffffffffffffffffffffffffff1673ffffffffffffffffffffffffffffffffffffffff1673ffffffffffffffffffffffffffffffffffffffff1681526020016005820160009054906101000a900473ffffffffffffffffffffffffffffffffffffffff1673ffffffffffffffffffffffffffffffffffffffff1673ffffffffffffffffffffffffffffffffffffffff16815260200160068201805461115590612f92565b80601f016020809104026020016040519081016040528092919081815260200182805461118190612f92565b80156111ce5780601f106111a3576101008083540402835291602001916111ce565b820191906000526020600020905b8154815290600101906020018083116111b157829003601f168201915b50505050508152505090508373ffffffffffffffffffffffffffffffffffffffff166323b872dd303384602001516040518463ffffffff1660e01b815260040161121a93929190612aa0565b600060405180830381600087803b15801561123457600080fd5b505af1158015611248573d6000803e3d6000fd5b5050505050808061125890612ff5565b915050610fda565b5060005b8160400151518110156114ee576000600560008460400151848151811061128e5761128d61309c565b5b602002602001015181526020019081526020016000206040518060e00160405290816000820154815260200160018201548152602001600282015481526020016003820160009054906101000a900473ffffffffffffffffffffffffffffffffffffffff1673ffffffffffffffffffffffffffffffffffffffff1673ffffffffffffffffffffffffffffffffffffffff1681526020016004820160009054906101000a900473ffffffffffffffffffffffffffffffffffffffff1673ffffffffffffffffffffffffffffffffffffffff1673ffffffffffffffffffffffffffffffffffffffff1681526020016005820160009054906101000a900473ffffffffffffffffffffffffffffffffffffffff1673ffffffffffffffffffffffffffffffffffffffff1673ffffffffffffffffffffffffffffffffffffffff1681526020016006820180546113df90612f92565b80601f016020809104026020016040519081016040528092919081815260200182805461140b90612f92565b80156114585780601f1061142d57610100808354040283529160200191611458565b820191906000526020600020905b81548152906001019060200180831161143b57829003601f168201915b50505050508152505090508373ffffffffffffffffffffffffffffffffffffffff166323b872dd30856060015184602001516040518463ffffffff1660e01b81526004016114a893929190612aa0565b600060405180830381600087803b1580156114c257600080fd5b505af11580156114d6573d6000803e3d6000fd5b505050505080806114e690612ff5565b915050611264565b5060018160a00190151590811515815250505060016000819055505050565b6060600061151b6003611f68565b905061155c6040518060400160405280600f81526020017f746f74616c206974656d733a202573000000000000000000000000000000000081525082611f76565b60008167ffffffffffffffff811115611578576115776130cb565b5b6040519080825280602002602001820160405280156115b157816020015b61159e612125565b8152602001906001900390816115965790505b50905060005b828110156117ee576000600560006001846115d29190612e79565b81526020019081526020016000206000015490506000600560008381526020019081526020016000209050806040518060e00160405290816000820154815260200160018201548152602001600282015481526020016003820160009054906101000a900473ffffffffffffffffffffffffffffffffffffffff1673ffffffffffffffffffffffffffffffffffffffff1673ffffffffffffffffffffffffffffffffffffffff1681526020016004820160009054906101000a900473ffffffffffffffffffffffffffffffffffffffff1673ffffffffffffffffffffffffffffffffffffffff1673ffffffffffffffffffffffffffffffffffffffff1681526020016005820160009054906101000a900473ffffffffffffffffffffffffffffffffffffffff1673ffffffffffffffffffffffffffffffffffffffff1673ffffffffffffffffffffffffffffffffffffffff16815260200160068201805461173990612f92565b80601f016020809104026020016040519081016040528092919081815260200182805461176590612f92565b80156117b25780601f10611787576101008083540402835291602001916117b2565b820191906000526020600020905b81548152906001019060200180831161179557829003601f168201915b5050505050815250508484815181106117ce576117cd61309c565b5b6020026020010181905250505080806117e690612ff5565b9150506115b7565b50809250505090565b6002600054141561183d576040517f08c379a000000000000000000000000000000000000000000000000000000000815260040161183490612c2b565b60405180910390fd5b600260008190555060005b8351811015611ac55760006005600086848151811061186a5761186961309c565b5b602002602001015181526020019081526020016000206040518060e00160405290816000820154815260200160018201548152602001600282015481526020016003820160009054906101000a900473ffffffffffffffffffffffffffffffffffffffff1673ffffffffffffffffffffffffffffffffffffffff1673ffffffffffffffffffffffffffffffffffffffff1681526020016004820160009054906101000a900473ffffffffffffffffffffffffffffffffffffffff1673ffffffffffffffffffffffffffffffffffffffff1673ffffffffffffffffffffffffffffffffffffffff1681526020016005820160009054906101000a900473ffffffffffffffffffffffffffffffffffffffff1673ffffffffffffffffffffffffffffffffffffffff1673ffffffffffffffffffffffffffffffffffffffff1681526020016006820180546119bb90612f92565b80601f01602080910402602001604051908101604052809291908181526020018280546119e790612f92565b8015611a345780601f10611a0957610100808354040283529160200191611a34565b820191906000526020600020905b815481529060010190602001808311611a1757829003601f168201915b50505050508152505090503373ffffffffffffffffffffffffffffffffffffffff16816080015173ffffffffffffffffffffffffffffffffffffffff1614611ab1576040517f08c379a0000000000000000000000000000000000000000000000000000000008152600401611aa890612c0b565b60405180910390fd5b508080611abd90612ff5565b915050611848565b5060005b8251811015611d4657600060056000858481518110611aeb57611aea61309c565b5b602002602001015181526020019081526020016000206040518060e00160405290816000820154815260200160018201548152602001600282015481526020016003820160009054906101000a900473ffffffffffffffffffffffffffffffffffffffff1673ffffffffffffffffffffffffffffffffffffffff1673ffffffffffffffffffffffffffffffffffffffff1681526020016004820160009054906101000a900473ffffffffffffffffffffffffffffffffffffffff1673ffffffffffffffffffffffffffffffffffffffff1673ffffffffffffffffffffffffffffffffffffffff1681526020016005820160009054906101000a900473ffffffffffffffffffffffffffffffffffffffff1673ffffffffffffffffffffffffffffffffffffffff1673ffffffffffffffffffffffffffffffffffffffff168152602001600682018054611c3c90612f92565b80601f0160208091040260200160405190810160405280929190818152602001828054611c6890612f92565b8015611cb55780601f10611c8a57610100808354040283529160200191611cb5565b820191906000526020600020905b815481529060010190602001808311611c9857829003601f168201915b50505050508152505090508273ffffffffffffffffffffffffffffffffffffffff16816080015173ffffffffffffffffffffffffffffffffffffffff1614611d32576040517f08c379a0000000000000000000000000000000000000000000000000000000008152600401611d2990612b4b565b60405180910390fd5b508080611d3e90612ff5565b915050611ac9565b50611d516004611f52565b6000611d5d6004611f68565b9050611d9e6040518060400160405280600a81526020017f257320747261646549640000000000000000000000000000000000000000000081525082611f76565b6040518060c001604052808281526020018581526020018481526020013373ffffffffffffffffffffffffffffffffffffffff1681526020018373ffffffffffffffffffffffffffffffffffffffff1681526020016000151581525060066000838152602001908152602001600020600082015181600001556020820151816001019080519060200190611e339291906121a4565b506040820151816002019080519060200190611e509291906121a4565b5060608201518160030160006101000a81548173ffffffffffffffffffffffffffffffffffffffff021916908373ffffffffffffffffffffffffffffffffffffffff16021790555060808201518160040160006101000a81548173ffffffffffffffffffffffffffffffffffffffff021916908373ffffffffffffffffffffffffffffffffffffffff16021790555060a08201518160040160146101000a81548160ff0219169083151502179055509050507faaefb0394537948912944e22a173aed0d6424cafde1524fb2c9b11d9aa1c70fb81858533866000604051611f3c96959493929190612cb0565b60405180910390a1506001600081905550505050565b6001816000016000828254019250508190555050565b600081600001549050919050565b61200e8282604051602401611f8c929190612b1b565b6040516020818303038152906040527f9710a9d0000000000000000000000000000000000000000000000000000000007bffffffffffffffffffffffffffffffffffffffffffffffffffffffff19166020820180517bffffffffffffffffffffffffffffffffffffffffffffffffffffffff8381831617835250505050612012565b5050565b60008151905060006a636f6e736f6c652e6c6f679050602083016000808483855afa5050505050565b82805461204790612f92565b90600052602060002090601f01602090048101928261206957600085556120b0565b82601f1061208257805160ff19168380011785556120b0565b828001600101855582156120b0579182015b828111156120af578251825591602001919060010190612094565b5b5090506120bd91906121f1565b5090565b6040518060c00160405280600081526020016060815260200160608152602001600073ffffffffffffffffffffffffffffffffffffffff168152602001600073ffffffffffffffffffffffffffffffffffffffff1681526020016000151581525090565b6040518060e00160405280600081526020016000815260200160008152602001600073ffffffffffffffffffffffffffffffffffffffff168152602001600073ffffffffffffffffffffffffffffffffffffffff168152602001600073ffffffffffffffffffffffffffffffffffffffff168152602001606081525090565b8280548282559060005260206000209081019282156121e0579160200282015b828111156121df5782518255916020019190600101906121c4565b5b5090506121ed91906121f1565b5090565b5b8082111561220a5760008160009055506001016121f2565b5090565b600061222161221c84612d44565b612d1f565b90508083825260208201905082856020860282011115612244576122436130ff565b5b60005b85811015612274578161225a88826122c1565b845260208401935060208301925050600181019050612247565b5050509392505050565b60008135905061228d81613290565b92915050565b600082601f8301126122a8576122a76130fa565b5b81356122b884826020860161220e565b91505092915050565b6000813590506122d0816132a7565b92915050565b6000602082840312156122ec576122eb613109565b5b60006122fa8482850161227e565b91505092915050565b6000806040838503121561231a57612319613109565b5b60006123288582860161227e565b9250506020612339858286016122c1565b9150509250929050565b60008060006060848603121561235c5761235b613109565b5b600061236a8682870161227e565b935050602061237b868287016122c1565b925050604061238c868287016122c1565b9150509250925092565b6000806000606084860312156123af576123ae613109565b5b600084013567ffffffffffffffff8111156123cd576123cc613104565b5b6123d986828701612293565b935050602084013567ffffffffffffffff8111156123fa576123f9613104565b5b61240686828701612293565b92505060406124178682870161227e565b9150509250925092565b60006020828403121561243757612436613109565b5b6000612445848285016122c1565b91505092915050565b6000806040838503121561246557612464613109565b5b6000612473858286016122c1565b92505060206124848582860161227e565b9150509250929050565b600061249a8383612909565b905092915050565b60006124ae83836129a5565b905092915050565b60006124c28383612a35565b60208301905092915050565b6124d781612f29565b82525050565b6124e681612ee1565b82525050565b6124f581612ee1565b82525050565b61250481612ecf565b82525050565b61251381612ecf565b82525050565b600061252482612db5565b61252e8185612e08565b93508360208202850161254085612d70565b8060005b8581101561257c578484038952815161255d858261248e565b945061256883612de1565b925060208a01995050600181019050612544565b50829750879550505050505092915050565b600061259982612dc0565b6125a38185612e19565b9350836020820285016125b585612d80565b8060005b858110156125f157848403895281516125d285826124a2565b94506125dd83612dee565b925060208a019950506001810190506125b9565b50829750879550505050505092915050565b600061260e82612dcb565b6126188185612e2a565b935061262383612d90565b8060005b8381101561265457815161263b88826124b6565b975061264683612dfb565b925050600181019050612627565b5085935050505092915050565b600061266c82612dcb565b6126768185612e3b565b935061268183612d90565b8060005b838110156126b257815161269988826124b6565b97506126a483612dfb565b925050600181019050612685565b5085935050505092915050565b6126c881612ef3565b82525050565b6126d781612ef3565b82525050565b600081546126ea81612f92565b6126f48186612e4c565b9450600182166000811461270f576001811461272057612753565b60ff19831686528186019350612753565b61272985612da0565b60005b8381101561274b5781548189015260018201915060208101905061272c565b838801955050505b50505092915050565b600061276782612dd6565b6127718185612e57565b9350612781818560208601612f5f565b61278a8161310e565b840191505092915050565b60006127a082612dd6565b6127aa8185612e68565b93506127ba818560208601612f5f565b6127c38161310e565b840191505092915050565b60006127db600983612e68565b91506127e68261311f565b602082019050919050565b60006127fe601a83612e68565b915061280982613148565b602082019050919050565b6000612821601383612e68565b915061282c82613171565b602082019050919050565b6000612844601b83612e68565b915061284f8261319a565b602082019050919050565b6000612867601a83612e68565b9150612872826131c3565b602082019050919050565b600061288a602083612e68565b9150612895826131ec565b602082019050919050565b60006128ad601b83612e68565b91506128b882613215565b602082019050919050565b60006128d0601a83612e68565b91506128db8261323e565b602082019050919050565b60006128f3601f83612e68565b91506128fe82613267565b602082019050919050565b600060e0830160008301516129216000860182612a35565b5060208301516129346020860182612a35565b5060408301516129476040860182612a35565b50606083015161295a60608601826124fb565b50608083015161296d60808601826124dd565b5060a083015161298060a08601826124dd565b5060c083015184820360c0860152612998828261275c565b9150508091505092915050565b600060c0830160008301516129bd6000860182612a35565b50602083015184820360208601526129d58282612603565b915050604083015184820360408601526129ef8282612603565b9150506060830151612a0460608601826124fb565b506080830151612a1760808601826124fb565b5060a0830151612a2a60a08601826126bf565b508091505092915050565b612a3e81612f1f565b82525050565b612a4d81612f1f565b82525050565b6000612a5f82846126dd565b915081905092915050565b6000602082019050612a7f600083018461250a565b92915050565b6000602082019050612a9a60008301846124ec565b92915050565b6000606082019050612ab5600083018661250a565b612ac2602083018561250a565b612acf6040830184612a44565b949350505050565b60006020820190508181036000830152612af18184612519565b905092915050565b60006020820190508181036000830152612b13818461258e565b905092915050565b60006040820190508181036000830152612b358185612795565b9050612b446020830184612a44565b9392505050565b60006020820190508181036000830152612b64816127f1565b9050919050565b60006020820190508181036000830152612b8481612814565b9050919050565b60006020820190508181036000830152612ba481612837565b9050919050565b60006020820190508181036000830152612bc48161285a565b9050919050565b60006020820190508181036000830152612be48161287d565b9050919050565b60006020820190508181036000830152612c04816128a0565b9050919050565b60006020820190508181036000830152612c24816128c3565b9050919050565b60006020820190508181036000830152612c44816128e6565b9050919050565b6000602082019050612c606000830184612a44565b92915050565b6000608082019050612c7b6000830186612a44565b612c8860208301856124ce565b612c95604083018461250a565b8181036060830152612ca6816127ce565b9050949350505050565b600060c082019050612cc56000830189612a44565b8181036020830152612cd78188612661565b90508181036040830152612ceb8187612661565b9050612cfa606083018661250a565b612d07608083018561250a565b612d1460a08301846126ce565b979650505050505050565b6000612d29612d3a565b9050612d358282612fc4565b919050565b6000604051905090565b600067ffffffffffffffff821115612d5f57612d5e6130cb565b5b602082029050602081019050919050565b6000819050602082019050919050565b6000819050602082019050919050565b6000819050602082019050919050565b60008190508160005260206000209050919050565b600081519050919050565b600081519050919050565b600081519050919050565b600081519050919050565b6000602082019050919050565b6000602082019050919050565b6000602082019050919050565b600082825260208201905092915050565b600082825260208201905092915050565b600082825260208201905092915050565b600082825260208201905092915050565b600081905092915050565b600082825260208201905092915050565b600082825260208201905092915050565b6000612e8482612f1f565b9150612e8f83612f1f565b9250827fffffffffffffffffffffffffffffffffffffffffffffffffffffffffffffffff03821115612ec457612ec361303e565b5b828201905092915050565b6000612eda82612eff565b9050919050565b6000612eec82612eff565b9050919050565b60008115159050919050565b600073ffffffffffffffffffffffffffffffffffffffff82169050919050565b6000819050919050565b6000612f3482612f3b565b9050919050565b6000612f4682612f4d565b9050919050565b6000612f5882612eff565b9050919050565b60005b83811015612f7d578082015181840152602081019050612f62565b83811115612f8c576000848401525b50505050565b60006002820490506001821680612faa57607f821691505b60208210811415612fbe57612fbd61306d565b5b50919050565b612fcd8261310e565b810181811067ffffffffffffffff82111715612fec57612feb6130cb565b5b80604052505050565b600061300082612f1f565b91507fffffffffffffffffffffffffffffffffffffffffffffffffffffffffffffffff8214156130335761303261303e565b5b600182019050919050565b7f4e487b7100000000000000000000000000000000000000000000000000000000600052601160045260246000fd5b7f4e487b7100000000000000000000000000000000000000000000000000000000600052602260045260246000fd5b7f4e487b7100000000000000000000000000000000000000000000000000000000600052603260045260246000fd5b7f4e487b7100000000000000000000000000000000000000000000000000000000600052604160045260246000fd5b600080fd5b600080fd5b600080fd5b600080fd5b6000601f19601f8301169050919050565b7f617661696c61626c650000000000000000000000000000000000000000000000600082015250565b7f6f666665726565206e6f74206f776e6572206f66207468657365000000000000600082015250565b7f43616e277420736574207072696365203e203000000000000000000000000000600082015250565b7f74686973206f66666572206973206e6f7420617661696c61626c650000000000600082015250565b7f4e6f7420656e6f7567682045544820666f722070756368617365000000000000600082015250565b7f4f776e61626c653a2063616c6c6572206973206e6f7420746865206f776e6572600082015250565b7f4974656d206973206e6f206c6f6e67657220617661696c61626c650000000000600082015250565b7f6f666665726572206e6f74206f776e6572206f66207468657365000000000000600082015250565b7f5265656e7472616e637947756172643a207265656e7472616e742063616c6c00600082015250565b61329981612ecf565b81146132a457600080fd5b50565b6132b081612f1f565b81146132bb57600080fd5b5056fea26469706673582212203ee6f3ea6ac38ec2f51656a28fc3a2393dcde5b01f3fe8aac2f3b48edf5642ab64736f6c63430008070033",
  "linkReferences": {},
  "deployedLinkReferences": {}
}