{
  "_format": "hh-sol-artifact-1",
  "contractName": "MarketListing",
  "sourceName": "contracts/MarketListing.sol",
  "abi": [
    {
      "anonymous": false,
      "inputs": [
        {
          "indexed": true,
          "internalType": "uint256",
          "name": "itemId",
          "type": "uint256"
        },
        {
          "indexed": true,
          "internalType": "uint256",
          "name": "tokenId",
          "type": "uint256"
        },
        {
          "indexed": false,
          "internalType": "uint256",
          "name": "price",
          "type": "uint256"
        },
        {
          "indexed": true,
          "internalType": "address",
          "name": "nftContract",
          "type": "address"
        },
        {
          "indexed": false,
          "internalType": "address",
          "name": "seller",
          "type": "address"
        },
        {
          "indexed": false,
          "internalType": "address",
          "name": "owner",
          "type": "address"
        },
        {
          "indexed": false,
          "internalType": "bool",
          "name": "sold",
          "type": "bool"
        }
      ],
      "name": "MarketItemCreated",
      "type": "event"
    },
    {
      "anonymous": false,
      "inputs": [
        {
          "indexed": true,
          "internalType": "uint256",
          "name": "itemId",
          "type": "uint256"
        },
        {
          "indexed": true,
          "internalType": "uint256",
          "name": "tokenId",
          "type": "uint256"
        },
        {
          "indexed": false,
          "internalType": "uint256",
          "name": "price",
          "type": "uint256"
        },
        {
          "indexed": true,
          "internalType": "address",
          "name": "nftContract",
          "type": "address"
        }
      ],
      "name": "MarketItemSold",
      "type": "event"
    },
    {
      "inputs": [],
      "name": "_owner",
      "outputs": [
        {
          "internalType": "address payable",
          "name": "",
          "type": "address"
        }
      ],
      "stateMutability": "view",
      "type": "function"
    },
    {
      "inputs": [
        {
          "internalType": "address",
          "name": "_nftContract",
          "type": "address"
        },
        {
          "internalType": "uint256",
          "name": "_tokenId",
          "type": "uint256"
        },
        {
          "internalType": "uint256",
          "name": "_price",
          "type": "uint256"
        }
      ],
      "name": "createMarketItem",
      "outputs": [],
      "stateMutability": "payable",
      "type": "function"
    },
    {
      "inputs": [
        {
          "internalType": "address",
          "name": "_nftContract",
          "type": "address"
        },
        {
          "internalType": "uint256",
          "name": "_itemId",
          "type": "uint256"
        }
      ],
      "name": "createMarketItemSale",
      "outputs": [],
      "stateMutability": "payable",
      "type": "function"
    },
    {
      "inputs": [],
      "name": "getAllMarketItems",
      "outputs": [
        {
          "components": [
            {
              "internalType": "uint256",
              "name": "itemId",
              "type": "uint256"
            },
            {
              "internalType": "uint256",
              "name": "tokenId",
              "type": "uint256"
            },
            {
              "internalType": "uint256",
              "name": "price",
              "type": "uint256"
            },
            {
              "internalType": "address",
              "name": "nftContract",
              "type": "address"
            },
            {
              "internalType": "address payable",
              "name": "seller",
              "type": "address"
            },
            {
              "internalType": "address payable",
              "name": "owner",
              "type": "address"
            },
            {
              "internalType": "bool",
              "name": "sold",
              "type": "bool"
            }
          ],
          "internalType": "struct MarketListing.MarketItem[]",
          "name": "",
          "type": "tuple[]"
        }
      ],
      "stateMutability": "view",
      "type": "function"
    },
    {
      "inputs": [],
      "name": "itemListingPrice",
      "outputs": [
        {
          "internalType": "uint256",
          "name": "",
          "type": "uint256"
        }
      ],
      "stateMutability": "view",
      "type": "function"
    },
    {
      "inputs": [],
      "name": "owner",
      "outputs": [
        {
          "internalType": "address",
          "name": "",
          "type": "address"
        }
      ],
      "stateMutability": "view",
      "type": "function"
    },
    {
      "inputs": [
        {
          "internalType": "uint256",
          "name": "_price",
          "type": "uint256"
        }
      ],
      "name": "setListingPrice",
      "outputs": [],
      "stateMutability": "nonpayable",
      "type": "function"
    }
  ],
  "bytecode": "0x608060405266038d7ea4c6800060025534801561001b57600080fd5b50600160008190555033600160006101000a81548173ffffffffffffffffffffffffffffffffffffffff021916908373ffffffffffffffffffffffffffffffffffffffff16021790555061148a806100746000396000f3fe6080604052600436106100705760003560e01c8063a05edd3f1161004e578063a05edd3f146100e5578063a425dd0914610110578063b2bdfa7b1461012c578063f16d376c1461015757610070565b806358eb2df5146100755780637c726b69146100915780638da5cb5b146100ba575b600080fd5b61008f600480360381019061008a9190610cb9565b610182565b005b34801561009d57600080fd5b506100b860048036038101906100b39190610d0c565b6104e0565b005b3480156100c657600080fd5b506100cf61055f565b6040516100dc9190610f89565b60405180910390f35b3480156100f157600080fd5b506100fa610589565b60405161010791906110c8565b60405180910390f35b61012a60048036038101906101259190610c79565b61058f565b005b34801561013857600080fd5b5061014161084c565b60405161014e9190610fa4565b60405180910390f35b34801561016357600080fd5b5061016c610872565b6040516101799190610ff6565b60405180910390f35b600260005414156101c8576040517f08c379a00000000000000000000000000000000000000000000000000000000081526004016101bf906110a8565b60405180910390fd5b600260008190555060008111610213576040517f08c379a000000000000000000000000000000000000000000000000000000000815260040161020a90611048565b60405180910390fd5b61021d6003610ae5565b60006102296003610afb565b905061026a6040518060400160405280601f81526020017f63726561746564206d61726b6574206974656d20776974682069643a2025730081525082610b09565b6040518060e001604052808281526020018481526020018381526020018573ffffffffffffffffffffffffffffffffffffffff1681526020013373ffffffffffffffffffffffffffffffffffffffff168152602001600073ffffffffffffffffffffffffffffffffffffffff168152602001600015158152506004600083815260200190815260200160002060008201518160000155602082015181600101556040820151816002015560608201518160030160006101000a81548173ffffffffffffffffffffffffffffffffffffffff021916908373ffffffffffffffffffffffffffffffffffffffff16021790555060808201518160040160006101000a81548173ffffffffffffffffffffffffffffffffffffffff021916908373ffffffffffffffffffffffffffffffffffffffff16021790555060a08201518160050160006101000a81548173ffffffffffffffffffffffffffffffffffffffff021916908373ffffffffffffffffffffffffffffffffffffffff16021790555060c08201518160050160146101000a81548160ff0219169083151502179055509050508373ffffffffffffffffffffffffffffffffffffffff166323b872dd3330866040518463ffffffff1660e01b815260040161044993929190610fbf565b600060405180830381600087803b15801561046357600080fd5b505af1158015610477573d6000803e3d6000fd5b505050508373ffffffffffffffffffffffffffffffffffffffff1683827f9d845d13dc367018dfeeeefd595ee78d3ce36122a154f401f4811cf7044cf8c885336000806040516104ca94939291906110e3565b60405180910390a4506001600081905550505050565b3373ffffffffffffffffffffffffffffffffffffffff166104ff61055f565b73ffffffffffffffffffffffffffffffffffffffff1614610555576040517f08c379a000000000000000000000000000000000000000000000000000000000815260040161054c90611088565b60405180910390fd5b8060028190555050565b6000600160009054906101000a900473ffffffffffffffffffffffffffffffffffffffff16905090565b60025481565b600260005414156105d5576040517f08c379a00000000000000000000000000000000000000000000000000000000081526004016105cc906110a8565b60405180910390fd5b60026000819055506000600460008381526020019081526020016000209050600081600201549050600082600101549050813414610648576040517f08c379a000000000000000000000000000000000000000000000000000000000815260040161063f90611068565b60405180910390fd5b8260040160009054906101000a900473ffffffffffffffffffffffffffffffffffffffff1673ffffffffffffffffffffffffffffffffffffffff166108fc349081150290604051600060405180830381858888f193505050501580156106b2573d6000803e3d6000fd5b508473ffffffffffffffffffffffffffffffffffffffff166323b872dd3033846040518463ffffffff1660e01b81526004016106f093929190610fbf565b600060405180830381600087803b15801561070a57600080fd5b505af115801561071e573d6000803e3d6000fd5b50505050338360050160006101000a81548173ffffffffffffffffffffffffffffffffffffffff021916908373ffffffffffffffffffffffffffffffffffffffff16021790555060018360050160146101000a81548160ff021916908315150217905550600160009054906101000a900473ffffffffffffffffffffffffffffffffffffffff1673ffffffffffffffffffffffffffffffffffffffff166108fc6002549081150290604051600060405180830381858888f193505050501580156107ec573d6000803e3d6000fd5b508473ffffffffffffffffffffffffffffffffffffffff1681857f63620c7091ccac79e9c3f37ed54d4260fe69fcfc8b25e642d99231efbd0c761d8560405161083591906110c8565b60405180910390a450505060016000819055505050565b600160009054906101000a900473ffffffffffffffffffffffffffffffffffffffff1681565b606060006108806003610afb565b90506108c16040518060400160405280600f81526020017f746f74616c206974656d733a202573000000000000000000000000000000000081525082610b09565b60008167ffffffffffffffff8111156108dd576108dc61133d565b5b60405190808252806020026020018201604052801561091657816020015b610903610bce565b8152602001906001900390816108fb5790505b50905060005b82811015610adc57600060046000600184610937919061117d565b81526020019081526020016000206000015490506000600460008381526020019081526020016000209050806040518060e00160405290816000820154815260200160018201548152602001600282015481526020016003820160009054906101000a900473ffffffffffffffffffffffffffffffffffffffff1673ffffffffffffffffffffffffffffffffffffffff1673ffffffffffffffffffffffffffffffffffffffff1681526020016004820160009054906101000a900473ffffffffffffffffffffffffffffffffffffffff1673ffffffffffffffffffffffffffffffffffffffff1673ffffffffffffffffffffffffffffffffffffffff1681526020016005820160009054906101000a900473ffffffffffffffffffffffffffffffffffffffff1673ffffffffffffffffffffffffffffffffffffffff1673ffffffffffffffffffffffffffffffffffffffff1681526020016005820160149054906101000a900460ff161515151581525050848481518110610abc57610abb61130e565b5b602002602001018190525050508080610ad490611296565b91505061091c565b50809250505090565b6001816000016000828254019250508190555050565b600081600001549050919050565b610ba18282604051602401610b1f929190611018565b6040516020818303038152906040527f9710a9d0000000000000000000000000000000000000000000000000000000007bffffffffffffffffffffffffffffffffffffffffffffffffffffffff19166020820180517bffffffffffffffffffffffffffffffffffffffffffffffffffffffff8381831617835250505050610ba5565b5050565b60008151905060006a636f6e736f6c652e6c6f679050602083016000808483855afa5050505050565b6040518060e00160405280600081526020016000815260200160008152602001600073ffffffffffffffffffffffffffffffffffffffff168152602001600073ffffffffffffffffffffffffffffffffffffffff168152602001600073ffffffffffffffffffffffffffffffffffffffff1681526020016000151581525090565b600081359050610c5e81611426565b92915050565b600081359050610c738161143d565b92915050565b60008060408385031215610c9057610c8f61136c565b5b6000610c9e85828601610c4f565b9250506020610caf85828601610c64565b9150509250929050565b600080600060608486031215610cd257610cd161136c565b5b6000610ce086828701610c4f565b9350506020610cf186828701610c64565b9250506040610d0286828701610c64565b9150509250925092565b600060208284031215610d2257610d2161136c565b5b6000610d3084828501610c64565b91505092915050565b6000610d458383610edd565b60e08301905092915050565b610d5a8161122d565b82525050565b610d69816111e5565b82525050565b610d78816111e5565b82525050565b610d87816111d3565b82525050565b610d96816111d3565b82525050565b6000610da782611138565b610db1818561115b565b9350610dbc83611128565b8060005b83811015610ded578151610dd48882610d39565b9750610ddf8361114e565b925050600181019050610dc0565b5085935050505092915050565b610e03816111f7565b82525050565b610e12816111f7565b82525050565b6000610e2382611143565b610e2d818561116c565b9350610e3d818560208601611263565b610e4681611371565b840191505092915050565b6000610e5e60138361116c565b9150610e6982611382565b602082019050919050565b6000610e81601a8361116c565b9150610e8c826113ab565b602082019050919050565b6000610ea460208361116c565b9150610eaf826113d4565b602082019050919050565b6000610ec7601f8361116c565b9150610ed2826113fd565b602082019050919050565b60e082016000820151610ef36000850182610f6b565b506020820151610f066020850182610f6b565b506040820151610f196040850182610f6b565b506060820151610f2c6060850182610d7e565b506080820151610f3f6080850182610d60565b5060a0820151610f5260a0850182610d60565b5060c0820151610f6560c0850182610dfa565b50505050565b610f7481611223565b82525050565b610f8381611223565b82525050565b6000602082019050610f9e6000830184610d8d565b92915050565b6000602082019050610fb96000830184610d6f565b92915050565b6000606082019050610fd46000830186610d8d565b610fe16020830185610d8d565b610fee6040830184610f7a565b949350505050565b600060208201905081810360008301526110108184610d9c565b905092915050565b600060408201905081810360008301526110328185610e18565b90506110416020830184610f7a565b9392505050565b6000602082019050818103600083015261106181610e51565b9050919050565b6000602082019050818103600083015261108181610e74565b9050919050565b600060208201905081810360008301526110a181610e97565b9050919050565b600060208201905081810360008301526110c181610eba565b9050919050565b60006020820190506110dd6000830184610f7a565b92915050565b60006080820190506110f86000830187610f7a565b6111056020830186610d51565b6111126040830185610d8d565b61111f6060830184610e09565b95945050505050565b6000819050602082019050919050565b600081519050919050565b600081519050919050565b6000602082019050919050565b600082825260208201905092915050565b600082825260208201905092915050565b600061118882611223565b915061119383611223565b9250827fffffffffffffffffffffffffffffffffffffffffffffffffffffffffffffffff038211156111c8576111c76112df565b5b828201905092915050565b60006111de82611203565b9050919050565b60006111f082611203565b9050919050565b60008115159050919050565b600073ffffffffffffffffffffffffffffffffffffffff82169050919050565b6000819050919050565b60006112388261123f565b9050919050565b600061124a82611251565b9050919050565b600061125c82611203565b9050919050565b60005b83811015611281578082015181840152602081019050611266565b83811115611290576000848401525b50505050565b60006112a182611223565b91507fffffffffffffffffffffffffffffffffffffffffffffffffffffffffffffffff8214156112d4576112d36112df565b5b600182019050919050565b7f4e487b7100000000000000000000000000000000000000000000000000000000600052601160045260246000fd5b7f4e487b7100000000000000000000000000000000000000000000000000000000600052603260045260246000fd5b7f4e487b7100000000000000000000000000000000000000000000000000000000600052604160045260246000fd5b600080fd5b6000601f19601f8301169050919050565b7f43616e277420736574207072696365203e203000000000000000000000000000600082015250565b7f4e6f7420656e6f7567682045544820666f722070756368617365000000000000600082015250565b7f4f776e61626c653a2063616c6c6572206973206e6f7420746865206f776e6572600082015250565b7f5265656e7472616e637947756172643a207265656e7472616e742063616c6c00600082015250565b61142f816111d3565b811461143a57600080fd5b50565b61144681611223565b811461145157600080fd5b5056fea26469706673582212206772a2e3761ed73261dd82ed2d9d20090e92ef97e949073828239c4b8bae7b3464736f6c63430008070033",
  "linkReferences": {},
  "deployedLinkReferences": {}
}