{
  "_format": "hh-sol-artifact-1",
  "contractName": "MarketListing",
  "sourceName": "contracts/MarketListing.sol",
  "abi": [
    {
      "anonymous": false,
      "inputs": [
        {
          "indexed": true,
          "internalType": "uint256",
          "name": "itemId",
          "type": "uint256"
        },
        {
          "indexed": true,
          "internalType": "uint256",
          "name": "tokenId",
          "type": "uint256"
        },
        {
          "indexed": false,
          "internalType": "uint256",
          "name": "price",
          "type": "uint256"
        },
        {
          "indexed": true,
          "internalType": "address",
          "name": "nftContract",
          "type": "address"
        },
        {
          "indexed": false,
          "internalType": "address",
          "name": "owner",
          "type": "address"
        },
        {
          "indexed": false,
          "internalType": "string",
          "name": "status",
          "type": "string"
        }
      ],
      "name": "MarketItemCreated",
      "type": "event"
    },
    {
      "anonymous": false,
      "inputs": [
        {
          "indexed": true,
          "internalType": "uint256",
          "name": "itemId",
          "type": "uint256"
        },
        {
          "indexed": true,
          "internalType": "uint256",
          "name": "tokenId",
          "type": "uint256"
        },
        {
          "indexed": false,
          "internalType": "uint256",
          "name": "price",
          "type": "uint256"
        },
        {
          "indexed": true,
          "internalType": "address",
          "name": "nftContract",
          "type": "address"
        }
      ],
      "name": "MarketItemSold",
      "type": "event"
    },
    {
      "anonymous": false,
      "inputs": [
        {
          "indexed": false,
          "internalType": "uint256",
          "name": "tradeId",
          "type": "uint256"
        },
        {
          "indexed": false,
          "internalType": "uint256[]",
          "name": "offererItemsId",
          "type": "uint256[]"
        },
        {
          "indexed": false,
          "internalType": "uint256[]",
          "name": "offereeItemsId",
          "type": "uint256[]"
        },
        {
          "indexed": false,
          "internalType": "address",
          "name": "offerer",
          "type": "address"
        },
        {
          "indexed": false,
          "internalType": "address",
          "name": "offeree",
          "type": "address"
        },
        {
          "indexed": false,
          "internalType": "bool",
          "name": "closed",
          "type": "bool"
        }
      ],
      "name": "MarketTradeAccepted",
      "type": "event"
    },
    {
      "anonymous": false,
      "inputs": [
        {
          "indexed": false,
          "internalType": "uint256",
          "name": "tradeId",
          "type": "uint256"
        },
        {
          "indexed": false,
          "internalType": "uint256[]",
          "name": "offererItemsId",
          "type": "uint256[]"
        },
        {
          "indexed": false,
          "internalType": "uint256[]",
          "name": "offereeItemsId",
          "type": "uint256[]"
        },
        {
          "indexed": false,
          "internalType": "address",
          "name": "offerer",
          "type": "address"
        },
        {
          "indexed": false,
          "internalType": "address",
          "name": "offeree",
          "type": "address"
        },
        {
          "indexed": false,
          "internalType": "bool",
          "name": "closed",
          "type": "bool"
        }
      ],
      "name": "MarketTradeCreated",
      "type": "event"
    },
    {
      "inputs": [],
      "name": "_owner",
      "outputs": [
        {
          "internalType": "address payable",
          "name": "",
          "type": "address"
        }
      ],
      "stateMutability": "view",
      "type": "function"
    },
    {
      "inputs": [
        {
          "internalType": "uint256",
          "name": "_tradeOfferId",
          "type": "uint256"
        },
        {
          "internalType": "address",
          "name": "_nftContract",
          "type": "address"
        }
      ],
      "name": "approveTradeOffer",
      "outputs": [],
      "stateMutability": "nonpayable",
      "type": "function"
    },
    {
      "inputs": [
        {
          "internalType": "uint256[]",
          "name": "_offererItemId",
          "type": "uint256[]"
        },
        {
          "internalType": "uint256[]",
          "name": "_offereeItemId",
          "type": "uint256[]"
        },
        {
          "internalType": "address",
          "name": "_offeree",
          "type": "address"
        }
      ],
      "name": "createItemTradeOffer",
      "outputs": [],
      "stateMutability": "nonpayable",
      "type": "function"
    },
    {
      "inputs": [
        {
          "internalType": "address",
          "name": "_nftContract",
          "type": "address"
        },
        {
          "internalType": "uint256",
          "name": "_tokenId",
          "type": "uint256"
        },
        {
          "internalType": "uint256",
          "name": "_price",
          "type": "uint256"
        }
      ],
      "name": "createMarketItem",
      "outputs": [],
      "stateMutability": "payable",
      "type": "function"
    },
    {
      "inputs": [
        {
          "internalType": "address",
          "name": "_nftContract",
          "type": "address"
        },
        {
          "internalType": "uint256",
          "name": "_itemId",
          "type": "uint256"
        }
      ],
      "name": "createMarketItemSale",
      "outputs": [],
      "stateMutability": "payable",
      "type": "function"
    },
    {
      "inputs": [],
      "name": "getAllMarketItems",
      "outputs": [
        {
          "components": [
            {
              "internalType": "uint256",
              "name": "itemId",
              "type": "uint256"
            },
            {
              "internalType": "uint256",
              "name": "tokenId",
              "type": "uint256"
            },
            {
              "internalType": "uint256",
              "name": "price",
              "type": "uint256"
            },
            {
              "internalType": "address",
              "name": "nftContract",
              "type": "address"
            },
            {
              "internalType": "address payable",
              "name": "owner",
              "type": "address"
            },
            {
              "internalType": "string",
              "name": "status",
              "type": "string"
            }
          ],
          "internalType": "struct MarketListing.MarketItem[]",
          "name": "",
          "type": "tuple[]"
        }
      ],
      "stateMutability": "view",
      "type": "function"
    },
    {
      "inputs": [
        {
          "internalType": "address",
          "name": "_user",
          "type": "address"
        }
      ],
      "name": "getUserTradeOffers",
      "outputs": [
        {
          "components": [
            {
              "internalType": "uint256",
              "name": "tradeId",
              "type": "uint256"
            },
            {
              "internalType": "uint256[]",
              "name": "offererItemsId",
              "type": "uint256[]"
            },
            {
              "internalType": "uint256[]",
              "name": "offereeItemsId",
              "type": "uint256[]"
            },
            {
              "internalType": "address",
              "name": "offerer",
              "type": "address"
            },
            {
              "internalType": "address",
              "name": "offeree",
              "type": "address"
            },
            {
              "internalType": "bool",
              "name": "closed",
              "type": "bool"
            }
          ],
          "internalType": "struct MarketListing.MarketTradeOffer[]",
          "name": "",
          "type": "tuple[]"
        }
      ],
      "stateMutability": "view",
      "type": "function"
    },
    {
      "inputs": [],
      "name": "itemListingPrice",
      "outputs": [
        {
          "internalType": "uint256",
          "name": "",
          "type": "uint256"
        }
      ],
      "stateMutability": "view",
      "type": "function"
    },
    {
      "inputs": [],
      "name": "owner",
      "outputs": [
        {
          "internalType": "address",
          "name": "",
          "type": "address"
        }
      ],
      "stateMutability": "view",
      "type": "function"
    },
    {
      "inputs": [
        {
          "internalType": "uint256",
          "name": "_tokenId",
          "type": "uint256"
        },
        {
          "internalType": "address",
          "name": "_nftContract",
          "type": "address"
        }
      ],
      "name": "reslistMarketItem",
      "outputs": [],
      "stateMutability": "nonpayable",
      "type": "function"
    },
    {
      "inputs": [
        {
          "internalType": "uint256",
          "name": "_price",
          "type": "uint256"
        }
      ],
      "name": "setListingPrice",
      "outputs": [],
      "stateMutability": "nonpayable",
      "type": "function"
    }
  ],
  "bytecode": "0x608060405266038d7ea4c6800060025534801561001b57600080fd5b50600160008190555033600160006101000a81548173ffffffffffffffffffffffffffffffffffffffff021916908373ffffffffffffffffffffffffffffffffffffffff160217905550612ffe806100746000396000f3fe60806040526004361061009c5760003560e01c8063a425dd0911610064578063a425dd0914610179578063b2bdfa7b14610195578063b58027aa146101c0578063f16d376c146101e9578063f6df9a1414610214578063f7e1ed551461023d5761009c565b806358eb2df5146100a15780635dbdb27d146100bd5780637c726b69146100fa5780638da5cb5b14610123578063a05edd3f1461014e575b600080fd5b6100bb60048036038101906100b69190611f29565b610266565b005b3480156100c957600080fd5b506100e460048036038101906100df9190611ebc565b61058a565b6040516100f19190612731565b60405180910390f35b34801561010657600080fd5b50610121600480360381019061011c9190612007565b610953565b005b34801561012f57600080fd5b506101386109d2565b60405161014591906126a2565b60405180910390f35b34801561015a57600080fd5b506101636109fc565b6040516101709190612883565b60405180910390f35b610193600480360381019061018e9190611ee9565b610a02565b005b3480156101a157600080fd5b506101aa610d1b565b6040516101b791906126bd565b60405180910390f35b3480156101cc57600080fd5b506101e760048036038101906101e29190612034565b610d41565b005b3480156101f557600080fd5b506101fe61120e565b60405161020b919061270f565b60405180910390f35b34801561022057600080fd5b5061023b60048036038101906102369190612034565b6114a2565b005b34801561024957600080fd5b50610264600480360381019061025f9190611f7c565b6114a6565b005b600260005414156102ac576040517f08c379a00000000000000000000000000000000000000000000000000000000081526004016102a390612863565b60405180910390fd5b6002600081905550600081116102f7576040517f08c379a00000000000000000000000000000000000000000000000000000000081526004016102ee906127a3565b60405180910390fd5b6103016003611b55565b600061030d6003611b6b565b905061034e6040518060400160405280601f81526020017f63726561746564206d61726b6574206974656d20776974682069643a2025730081525082611b79565b6040518060c001604052808281526020018481526020018381526020018573ffffffffffffffffffffffffffffffffffffffff1681526020013373ffffffffffffffffffffffffffffffffffffffff1681526020016040518060400160405280600981526020017f617661696c61626c6500000000000000000000000000000000000000000000008152508152506005600083815260200190815260200160002060008201518160000155602082015181600101556040820151816002015560608201518160030160006101000a81548173ffffffffffffffffffffffffffffffffffffffff021916908373ffffffffffffffffffffffffffffffffffffffff16021790555060808201518160040160006101000a81548173ffffffffffffffffffffffffffffffffffffffff021916908373ffffffffffffffffffffffffffffffffffffffff16021790555060a08201518160050190805190602001906104b7929190611c3e565b509050508373ffffffffffffffffffffffffffffffffffffffff166323b872dd3330866040518463ffffffff1660e01b81526004016104f8939291906126d8565b600060405180830381600087803b15801561051257600080fd5b505af1158015610526573d6000803e3d6000fd5b505050508373ffffffffffffffffffffffffffffffffffffffff1683827f5e9b758a9434d127aa7ccfb59304efe1e1a8d0754af95dcab3c8e52f109b2097853360405161057492919061289e565b60405180910390a4506001600081905550505050565b606060006105986004611b6b565b90506000805b828110156106b7578473ffffffffffffffffffffffffffffffffffffffff16600660006001846105ce9190612b3f565b815260200190815260200160002060040160009054906101000a900473ffffffffffffffffffffffffffffffffffffffff1673ffffffffffffffffffffffffffffffffffffffff16148061068f57508473ffffffffffffffffffffffffffffffffffffffff16600660006001846106459190612b3f565b815260200190815260200160002060030160009054906101000a900473ffffffffffffffffffffffffffffffffffffffff1673ffffffffffffffffffffffffffffffffffffffff16145b156106a4576001826106a19190612b3f565b91505b80806106af90612cdf565b91505061059e565b506000808267ffffffffffffffff8111156106d5576106d4612db5565b5b60405190808252806020026020018201604052801561070e57816020015b6106fb611cc4565b8152602001906001900390816106f35790505b50905060005b848110156109465760006006600060018461072f9190612b3f565b81526020019081526020016000206040518060c001604052908160008201548152602001600182018054806020026020016040519081016040528092919081815260200182805480156107a157602002820191906000526020600020905b81548152602001906001019080831161078d575b50505050508152602001600282018054806020026020016040519081016040528092919081815260200182805480156107f957602002820191906000526020600020905b8154815260200190600101908083116107e5575b505050505081526020016003820160009054906101000a900473ffffffffffffffffffffffffffffffffffffffff1673ffffffffffffffffffffffffffffffffffffffff1673ffffffffffffffffffffffffffffffffffffffff1681526020016004820160009054906101000a900473ffffffffffffffffffffffffffffffffffffffff1673ffffffffffffffffffffffffffffffffffffffff1673ffffffffffffffffffffffffffffffffffffffff1681526020016004820160149054906101000a900460ff16151515158152505090508773ffffffffffffffffffffffffffffffffffffffff16816080015173ffffffffffffffffffffffffffffffffffffffff161415610932578083858151811061091757610916612d86565b5b602002602001018190525060018461092f9190612b3f565b93505b50808061093e90612cdf565b915050610714565b5080945050505050919050565b3373ffffffffffffffffffffffffffffffffffffffff166109726109d2565b73ffffffffffffffffffffffffffffffffffffffff16146109c8576040517f08c379a00000000000000000000000000000000000000000000000000000000081526004016109bf90612803565b60405180910390fd5b8060028190555050565b6000600160009054906101000a900473ffffffffffffffffffffffffffffffffffffffff16905090565b60025481565b60026000541415610a48576040517f08c379a0000000000000000000000000000000000000000000000000000000008152600401610a3f90612863565b60405180910390fd5b60026000819055506000600560008381526020019081526020016000209050600081600201549050600082600101549050813414610abb576040517f08c379a0000000000000000000000000000000000000000000000000000000008152600401610ab2906127e3565b60405180910390fd5b6040518060400160405280600981526020017f617661696c61626c6500000000000000000000000000000000000000000000008152508051906020012083600501604051610b09919061268b565b604051809103902014610b51576040517f08c379a0000000000000000000000000000000000000000000000000000000008152600401610b4890612823565b60405180910390fd5b8260040160009054906101000a900473ffffffffffffffffffffffffffffffffffffffff1673ffffffffffffffffffffffffffffffffffffffff166108fc349081150290604051600060405180830381858888f19350505050158015610bbb573d6000803e3d6000fd5b508473ffffffffffffffffffffffffffffffffffffffff166323b872dd3033846040518463ffffffff1660e01b8152600401610bf9939291906126d8565b600060405180830381600087803b158015610c1357600080fd5b505af1158015610c27573d6000803e3d6000fd5b50505050338360040160006101000a81548173ffffffffffffffffffffffffffffffffffffffff021916908373ffffffffffffffffffffffffffffffffffffffff1602179055506040518060400160405280600481526020017f736f6c6400000000000000000000000000000000000000000000000000000000815250836005019080519060200190610cbb929190611c3e565b508473ffffffffffffffffffffffffffffffffffffffff1681857f63620c7091ccac79e9c3f37ed54d4260fe69fcfc8b25e642d99231efbd0c761d85604051610d049190612883565b60405180910390a450505060016000819055505050565b600160009054906101000a900473ffffffffffffffffffffffffffffffffffffffff1681565b60026000541415610d87576040517f08c379a0000000000000000000000000000000000000000000000000000000008152600401610d7e90612863565b60405180910390fd5b600260008190555060006006600084815260200190815260200160002090503373ffffffffffffffffffffffffffffffffffffffff168160040160009054906101000a900473ffffffffffffffffffffffffffffffffffffffff1673ffffffffffffffffffffffffffffffffffffffff1614610e38576040517f08c379a0000000000000000000000000000000000000000000000000000000008152600401610e2f906127c3565b60405180910390fd5b60005b8160010180549050811015610f9957600060056000846001018481548110610e6657610e65612d86565b5b906000526020600020015481526020019081526020016000209050338160040160006101000a81548173ffffffffffffffffffffffffffffffffffffffff021916908373ffffffffffffffffffffffffffffffffffffffff1602179055506040518060400160405280600681526020017f7472616465640000000000000000000000000000000000000000000000000000815250816005019080519060200190610f11929190611c3e565b508373ffffffffffffffffffffffffffffffffffffffff166323b872dd303384600101546040518463ffffffff1660e01b8152600401610f53939291906126d8565b600060405180830381600087803b158015610f6d57600080fd5b505af1158015610f81573d6000803e3d6000fd5b50505050508080610f9190612cdf565b915050610e3b565b5060005b816002018054905081101561114357600060056000846002018481548110610fc857610fc7612d86565b5b9060005260206000200154815260200190815260200160002090508260030160009054906101000a900473ffffffffffffffffffffffffffffffffffffffff168160040160006101000a81548173ffffffffffffffffffffffffffffffffffffffff021916908373ffffffffffffffffffffffffffffffffffffffff1602179055506040518060400160405280600681526020017f7472616465640000000000000000000000000000000000000000000000000000815250816005019080519060200190611097929190611c3e565b508373ffffffffffffffffffffffffffffffffffffffff166323b872dd308560030160009054906101000a900473ffffffffffffffffffffffffffffffffffffffff1684600101546040518463ffffffff1660e01b81526004016110fd939291906126d8565b600060405180830381600087803b15801561111757600080fd5b505af115801561112b573d6000803e3d6000fd5b5050505050808061113b90612cdf565b915050610f9d565b5060018160040160146101000a81548160ff0219169083151502179055507f66906e016e93e69a4c82c618b7595480e5a8d8b84a317b56c3ff3a7023e2f7868382600101836002018460030160009054906101000a900473ffffffffffffffffffffffffffffffffffffffff168560040160009054906101000a900473ffffffffffffffffffffffffffffffffffffffff168660040160149054906101000a900460ff166040516111f996959493929190612949565b60405180910390a15060016000819055505050565b6060600061121c6003611b6b565b905061125d6040518060400160405280600f81526020017f746f74616c206974656d733a202573000000000000000000000000000000000081525082611b79565b60008167ffffffffffffffff81111561127957611278612db5565b5b6040519080825280602002602001820160405280156112b257816020015b61129f611d28565b8152602001906001900390816112975790505b50905060005b82811015611499576000600560006001846112d39190612b3f565b81526020019081526020016000206000015490506000600560008381526020019081526020016000209050806040518060c00160405290816000820154815260200160018201548152602001600282015481526020016003820160009054906101000a900473ffffffffffffffffffffffffffffffffffffffff1673ffffffffffffffffffffffffffffffffffffffff1673ffffffffffffffffffffffffffffffffffffffff1681526020016004820160009054906101000a900473ffffffffffffffffffffffffffffffffffffffff1673ffffffffffffffffffffffffffffffffffffffff1673ffffffffffffffffffffffffffffffffffffffff1681526020016005820180546113e490612c62565b80601f016020809104026020016040519081016040528092919081815260200182805461141090612c62565b801561145d5780601f106114325761010080835404028352916020019161145d565b820191906000526020600020905b81548152906001019060200180831161144057829003601f168201915b50505050508152505084848151811061147957611478612d86565b5b60200260200101819052505050808061149190612cdf565b9150506112b8565b50809250505090565b5050565b600260005414156114ec576040517f08c379a00000000000000000000000000000000000000000000000000000000081526004016114e390612863565b60405180910390fd5b600260008190555060005b835181101561171e5760006005600086848151811061151957611518612d86565b5b602002602001015181526020019081526020016000206040518060c00160405290816000820154815260200160018201548152602001600282015481526020016003820160009054906101000a900473ffffffffffffffffffffffffffffffffffffffff1673ffffffffffffffffffffffffffffffffffffffff1673ffffffffffffffffffffffffffffffffffffffff1681526020016004820160009054906101000a900473ffffffffffffffffffffffffffffffffffffffff1673ffffffffffffffffffffffffffffffffffffffff1673ffffffffffffffffffffffffffffffffffffffff16815260200160058201805461161490612c62565b80601f016020809104026020016040519081016040528092919081815260200182805461164090612c62565b801561168d5780601f106116625761010080835404028352916020019161168d565b820191906000526020600020905b81548152906001019060200180831161167057829003601f168201915b50505050508152505090503373ffffffffffffffffffffffffffffffffffffffff16816080015173ffffffffffffffffffffffffffffffffffffffff161461170a576040517f08c379a000000000000000000000000000000000000000000000000000000000815260040161170190612843565b60405180910390fd5b50808061171690612cdf565b9150506114f7565b5060005b82518110156119495760006005600085848151811061174457611743612d86565b5b602002602001015181526020019081526020016000206040518060c00160405290816000820154815260200160018201548152602001600282015481526020016003820160009054906101000a900473ffffffffffffffffffffffffffffffffffffffff1673ffffffffffffffffffffffffffffffffffffffff1673ffffffffffffffffffffffffffffffffffffffff1681526020016004820160009054906101000a900473ffffffffffffffffffffffffffffffffffffffff1673ffffffffffffffffffffffffffffffffffffffff1673ffffffffffffffffffffffffffffffffffffffff16815260200160058201805461183f90612c62565b80601f016020809104026020016040519081016040528092919081815260200182805461186b90612c62565b80156118b85780601f1061188d576101008083540402835291602001916118b8565b820191906000526020600020905b81548152906001019060200180831161189b57829003601f168201915b50505050508152505090508273ffffffffffffffffffffffffffffffffffffffff16816080015173ffffffffffffffffffffffffffffffffffffffff1614611935576040517f08c379a000000000000000000000000000000000000000000000000000000000815260040161192c90612783565b60405180910390fd5b50808061194190612cdf565b915050611722565b506119546004611b55565b60006119606004611b6b565b90506119a16040518060400160405280600a81526020017f257320747261646549640000000000000000000000000000000000000000000081525082611b79565b6040518060c001604052808281526020018581526020018481526020013373ffffffffffffffffffffffffffffffffffffffff1681526020018373ffffffffffffffffffffffffffffffffffffffff1681526020016000151581525060066000838152602001908152602001600020600082015181600001556020820151816001019080519060200190611a36929190611d8a565b506040820151816002019080519060200190611a53929190611d8a565b5060608201518160030160006101000a81548173ffffffffffffffffffffffffffffffffffffffff021916908373ffffffffffffffffffffffffffffffffffffffff16021790555060808201518160040160006101000a81548173ffffffffffffffffffffffffffffffffffffffff021916908373ffffffffffffffffffffffffffffffffffffffff16021790555060a08201518160040160146101000a81548160ff0219169083151502179055509050507faaefb0394537948912944e22a173aed0d6424cafde1524fb2c9b11d9aa1c70fb81858533866000604051611b3f969594939291906128da565b60405180910390a1506001600081905550505050565b6001816000016000828254019250508190555050565b600081600001549050919050565b611c118282604051602401611b8f929190612753565b6040516020818303038152906040527f9710a9d0000000000000000000000000000000000000000000000000000000007bffffffffffffffffffffffffffffffffffffffffffffffffffffffff19166020820180517bffffffffffffffffffffffffffffffffffffffffffffffffffffffff8381831617835250505050611c15565b5050565b60008151905060006a636f6e736f6c652e6c6f679050602083016000808483855afa5050505050565b828054611c4a90612c62565b90600052602060002090601f016020900481019282611c6c5760008555611cb3565b82601f10611c8557805160ff1916838001178555611cb3565b82800160010185558215611cb3579182015b82811115611cb2578251825591602001919060010190611c97565b5b509050611cc09190611dd7565b5090565b6040518060c00160405280600081526020016060815260200160608152602001600073ffffffffffffffffffffffffffffffffffffffff168152602001600073ffffffffffffffffffffffffffffffffffffffff1681526020016000151581525090565b6040518060c00160405280600081526020016000815260200160008152602001600073ffffffffffffffffffffffffffffffffffffffff168152602001600073ffffffffffffffffffffffffffffffffffffffff168152602001606081525090565b828054828255906000526020600020908101928215611dc6579160200282015b82811115611dc5578251825591602001919060010190611daa565b5b509050611dd39190611dd7565b5090565b5b80821115611df0576000816000905550600101611dd8565b5090565b6000611e07611e02846129dd565b6129b8565b90508083825260208201905082856020860282011115611e2a57611e29612dfc565b5b60005b85811015611e5a5781611e408882611ea7565b845260208401935060208301925050600181019050611e2d565b5050509392505050565b600081359050611e7381612f9a565b92915050565b600082601f830112611e8e57611e8d612df7565b5b8135611e9e848260208601611df4565b91505092915050565b600081359050611eb681612fb1565b92915050565b600060208284031215611ed257611ed1612e06565b5b6000611ee084828501611e64565b91505092915050565b60008060408385031215611f0057611eff612e06565b5b6000611f0e85828601611e64565b9250506020611f1f85828601611ea7565b9150509250929050565b600080600060608486031215611f4257611f41612e06565b5b6000611f5086828701611e64565b9350506020611f6186828701611ea7565b9250506040611f7286828701611ea7565b9150509250925092565b600080600060608486031215611f9557611f94612e06565b5b600084013567ffffffffffffffff811115611fb357611fb2612e01565b5b611fbf86828701611e79565b935050602084013567ffffffffffffffff811115611fe057611fdf612e01565b5b611fec86828701611e79565b9250506040611ffd86828701611e64565b9150509250925092565b60006020828403121561201d5761201c612e06565b5b600061202b84828501611ea7565b91505092915050565b6000806040838503121561204b5761204a612e06565b5b600061205985828601611ea7565b925050602061206a85828601611e64565b9150509250929050565b60006120808383612554565b905092915050565b600061209483836125dd565b905092915050565b60006120a8838361266d565b60208301905092915050565b6120bd81612bf9565b82525050565b6120cc81612bb1565b82525050565b6120db81612bb1565b82525050565b6120ea81612b9f565b82525050565b6120f981612b9f565b82525050565b600061210a82612a63565b6121148185612ace565b93508360208202850161212685612a09565b8060005b8581101561216257848403895281516121438582612074565b945061214e83612a9a565b925060208a0199505060018101905061212a565b50829750879550505050505092915050565b600061217f82612a6e565b6121898185612adf565b93508360208202850161219b85612a19565b8060005b858110156121d757848403895281516121b88582612088565b94506121c383612aa7565b925060208a0199505060018101905061219f565b50829750879550505050505092915050565b60006121f482612a79565b6121fe8185612af0565b935061220983612a29565b8060005b8381101561223a578151612221888261209c565b975061222c83612ab4565b92505060018101905061220d565b5085935050505092915050565b600061225282612a79565b61225c8185612b01565b935061226783612a29565b8060005b8381101561229857815161227f888261209c565b975061228a83612ab4565b92505060018101905061226b565b5085935050505092915050565b60006122b082612a84565b6122ba8185612b01565b93506122c583612a39565b8060005b838110156122fd576122da82612de4565b6122e4888261209c565b97506122ef83612ac1565b9250506001810190506122c9565b5085935050505092915050565b61231381612bc3565b82525050565b61232281612bc3565b82525050565b6000815461233581612c62565b61233f8186612b12565b9450600182166000811461235a576001811461236b5761239e565b60ff1983168652818601935061239e565b61237485612a4e565b60005b8381101561239657815481890152600182019150602081019050612377565b838801955050505b50505092915050565b60006123b282612a8f565b6123bc8185612b1d565b93506123cc818560208601612c2f565b6123d581612e0b565b840191505092915050565b60006123eb82612a8f565b6123f58185612b2e565b9350612405818560208601612c2f565b61240e81612e0b565b840191505092915050565b6000612426600983612b2e565b915061243182612e29565b602082019050919050565b6000612449601a83612b2e565b915061245482612e52565b602082019050919050565b600061246c601383612b2e565b915061247782612e7b565b602082019050919050565b600061248f601b83612b2e565b915061249a82612ea4565b602082019050919050565b60006124b2601a83612b2e565b91506124bd82612ecd565b602082019050919050565b60006124d5602083612b2e565b91506124e082612ef6565b602082019050919050565b60006124f8601b83612b2e565b915061250382612f1f565b602082019050919050565b600061251b601a83612b2e565b915061252682612f48565b602082019050919050565b600061253e601f83612b2e565b915061254982612f71565b602082019050919050565b600060c08301600083015161256c600086018261266d565b50602083015161257f602086018261266d565b506040830151612592604086018261266d565b5060608301516125a560608601826120e1565b5060808301516125b860808601826120c3565b5060a083015184820360a08601526125d082826123a7565b9150508091505092915050565b600060c0830160008301516125f5600086018261266d565b506020830151848203602086015261260d82826121e9565b9150506040830151848203604086015261262782826121e9565b915050606083015161263c60608601826120e1565b50608083015161264f60808601826120e1565b5060a083015161266260a086018261230a565b508091505092915050565b61267681612bef565b82525050565b61268581612bef565b82525050565b60006126978284612328565b915081905092915050565b60006020820190506126b760008301846120f0565b92915050565b60006020820190506126d260008301846120d2565b92915050565b60006060820190506126ed60008301866120f0565b6126fa60208301856120f0565b612707604083018461267c565b949350505050565b6000602082019050818103600083015261272981846120ff565b905092915050565b6000602082019050818103600083015261274b8184612174565b905092915050565b6000604082019050818103600083015261276d81856123e0565b905061277c602083018461267c565b9392505050565b6000602082019050818103600083015261279c8161243c565b9050919050565b600060208201905081810360008301526127bc8161245f565b9050919050565b600060208201905081810360008301526127dc81612482565b9050919050565b600060208201905081810360008301526127fc816124a5565b9050919050565b6000602082019050818103600083015261281c816124c8565b9050919050565b6000602082019050818103600083015261283c816124eb565b9050919050565b6000602082019050818103600083015261285c8161250e565b9050919050565b6000602082019050818103600083015261287c81612531565b9050919050565b6000602082019050612898600083018461267c565b92915050565b60006060820190506128b3600083018561267c565b6128c060208301846120b4565b81810360408301526128d181612419565b90509392505050565b600060c0820190506128ef600083018961267c565b81810360208301526129018188612247565b905081810360408301526129158187612247565b905061292460608301866120f0565b61293160808301856120f0565b61293e60a0830184612319565b979650505050505050565b600060c08201905061295e600083018961267c565b818103602083015261297081886122a5565b9050818103604083015261298481876122a5565b905061299360608301866120f0565b6129a060808301856120f0565b6129ad60a0830184612319565b979650505050505050565b60006129c26129d3565b90506129ce8282612cae565b919050565b6000604051905090565b600067ffffffffffffffff8211156129f8576129f7612db5565b5b602082029050602081019050919050565b6000819050602082019050919050565b6000819050602082019050919050565b6000819050602082019050919050565b60008190508160005260206000209050919050565b60008190508160005260206000209050919050565b600081519050919050565b600081519050919050565b600081519050919050565b600081549050919050565b600081519050919050565b6000602082019050919050565b6000602082019050919050565b6000602082019050919050565b6000600182019050919050565b600082825260208201905092915050565b600082825260208201905092915050565b600082825260208201905092915050565b600082825260208201905092915050565b600081905092915050565b600082825260208201905092915050565b600082825260208201905092915050565b6000612b4a82612bef565b9150612b5583612bef565b9250827fffffffffffffffffffffffffffffffffffffffffffffffffffffffffffffffff03821115612b8a57612b89612d28565b5b828201905092915050565b6000819050919050565b6000612baa82612bcf565b9050919050565b6000612bbc82612bcf565b9050919050565b60008115159050919050565b600073ffffffffffffffffffffffffffffffffffffffff82169050919050565b6000819050919050565b6000612c0482612c0b565b9050919050565b6000612c1682612c1d565b9050919050565b6000612c2882612bcf565b9050919050565b60005b83811015612c4d578082015181840152602081019050612c32565b83811115612c5c576000848401525b50505050565b60006002820490506001821680612c7a57607f821691505b60208210811415612c8e57612c8d612d57565b5b50919050565b6000612ca7612ca283612e1c565b612b95565b9050919050565b612cb782612e0b565b810181811067ffffffffffffffff82111715612cd657612cd5612db5565b5b80604052505050565b6000612cea82612bef565b91507fffffffffffffffffffffffffffffffffffffffffffffffffffffffffffffffff821415612d1d57612d1c612d28565b5b600182019050919050565b7f4e487b7100000000000000000000000000000000000000000000000000000000600052601160045260246000fd5b7f4e487b7100000000000000000000000000000000000000000000000000000000600052602260045260246000fd5b7f4e487b7100000000000000000000000000000000000000000000000000000000600052603260045260246000fd5b7f4e487b7100000000000000000000000000000000000000000000000000000000600052604160045260246000fd5b6000612df08254612c94565b9050919050565b600080fd5b600080fd5b600080fd5b600080fd5b6000601f19601f8301169050919050565b60008160001c9050919050565b7f617661696c61626c650000000000000000000000000000000000000000000000600082015250565b7f6f666665726565206e6f74206f776e6572206f66207468657365000000000000600082015250565b7f43616e277420736574207072696365203e203000000000000000000000000000600082015250565b7f74686973206f66666572206973206e6f7420617661696c61626c650000000000600082015250565b7f4e6f7420656e6f7567682045544820666f722070756368617365000000000000600082015250565b7f4f776e61626c653a2063616c6c6572206973206e6f7420746865206f776e6572600082015250565b7f4974656d206973206e6f206c6f6e67657220617661696c61626c650000000000600082015250565b7f6f666665726572206e6f74206f776e6572206f66207468657365000000000000600082015250565b7f5265656e7472616e637947756172643a207265656e7472616e742063616c6c00600082015250565b612fa381612b9f565b8114612fae57600080fd5b50565b612fba81612bef565b8114612fc557600080fd5b5056fea2646970667358221220da2eda4e1e8817828b5c138e850f19505cd38243b902ff5941c2390286a2143464736f6c63430008070033",
  "linkReferences": {},
  "deployedLinkReferences": {}
}