{
  "_format": "hh-sol-artifact-1",
  "contractName": "MarketListing",
  "sourceName": "contracts/MarketListing.sol",
  "abi": [
    {
      "anonymous": false,
      "inputs": [
        {
          "indexed": true,
          "internalType": "uint256",
          "name": "itemId",
          "type": "uint256"
        },
        {
          "indexed": true,
          "internalType": "uint256",
          "name": "tokenId",
          "type": "uint256"
        },
        {
          "indexed": false,
          "internalType": "uint256",
          "name": "price",
          "type": "uint256"
        },
        {
          "indexed": true,
          "internalType": "address",
          "name": "nftContract",
          "type": "address"
        },
        {
          "indexed": false,
          "internalType": "address",
          "name": "seller",
          "type": "address"
        },
        {
          "indexed": false,
          "internalType": "address",
          "name": "owner",
          "type": "address"
        },
        {
          "indexed": false,
          "internalType": "string",
          "name": "status",
          "type": "string"
        }
      ],
      "name": "MarketItemCreated",
      "type": "event"
    },
    {
      "anonymous": false,
      "inputs": [
        {
          "indexed": true,
          "internalType": "uint256",
          "name": "itemId",
          "type": "uint256"
        },
        {
          "indexed": true,
          "internalType": "uint256",
          "name": "tokenId",
          "type": "uint256"
        },
        {
          "indexed": false,
          "internalType": "uint256",
          "name": "price",
          "type": "uint256"
        },
        {
          "indexed": true,
          "internalType": "address",
          "name": "nftContract",
          "type": "address"
        }
      ],
      "name": "MarketItemSold",
      "type": "event"
    },
    {
      "anonymous": false,
      "inputs": [
        {
          "indexed": false,
          "internalType": "uint256",
          "name": "tradeId",
          "type": "uint256"
        },
        {
          "indexed": false,
          "internalType": "uint256[]",
          "name": "offererItemsId",
          "type": "uint256[]"
        },
        {
          "indexed": false,
          "internalType": "uint256[]",
          "name": "offereeItemsId",
          "type": "uint256[]"
        },
        {
          "indexed": false,
          "internalType": "address",
          "name": "offerer",
          "type": "address"
        },
        {
          "indexed": false,
          "internalType": "address",
          "name": "offeree",
          "type": "address"
        },
        {
          "indexed": false,
          "internalType": "bool",
          "name": "closed",
          "type": "bool"
        }
      ],
      "name": "MarketTradeCreated",
      "type": "event"
    },
    {
      "inputs": [],
      "name": "_owner",
      "outputs": [
        {
          "internalType": "address payable",
          "name": "",
          "type": "address"
        }
      ],
      "stateMutability": "view",
      "type": "function"
    },
    {
      "inputs": [],
      "name": "approveTradeOffer",
      "outputs": [],
      "stateMutability": "nonpayable",
      "type": "function"
    },
    {
      "inputs": [
        {
          "internalType": "uint256[]",
          "name": "_offererItemId",
          "type": "uint256[]"
        },
        {
          "internalType": "uint256[]",
          "name": "_offereeItemId",
          "type": "uint256[]"
        },
        {
          "internalType": "address",
          "name": "_offeree",
          "type": "address"
        }
      ],
      "name": "createItemTradeOffer",
      "outputs": [],
      "stateMutability": "nonpayable",
      "type": "function"
    },
    {
      "inputs": [
        {
          "internalType": "address",
          "name": "_nftContract",
          "type": "address"
        },
        {
          "internalType": "uint256",
          "name": "_tokenId",
          "type": "uint256"
        },
        {
          "internalType": "uint256",
          "name": "_price",
          "type": "uint256"
        }
      ],
      "name": "createMarketItem",
      "outputs": [],
      "stateMutability": "payable",
      "type": "function"
    },
    {
      "inputs": [
        {
          "internalType": "address",
          "name": "_nftContract",
          "type": "address"
        },
        {
          "internalType": "uint256",
          "name": "_itemId",
          "type": "uint256"
        }
      ],
      "name": "createMarketItemSale",
      "outputs": [],
      "stateMutability": "payable",
      "type": "function"
    },
    {
      "inputs": [],
      "name": "getAllMarketItems",
      "outputs": [
        {
          "components": [
            {
              "internalType": "uint256",
              "name": "itemId",
              "type": "uint256"
            },
            {
              "internalType": "uint256",
              "name": "tokenId",
              "type": "uint256"
            },
            {
              "internalType": "uint256",
              "name": "price",
              "type": "uint256"
            },
            {
              "internalType": "address",
              "name": "nftContract",
              "type": "address"
            },
            {
              "internalType": "address payable",
              "name": "seller",
              "type": "address"
            },
            {
              "internalType": "address payable",
              "name": "owner",
              "type": "address"
            },
            {
              "internalType": "string",
              "name": "status",
              "type": "string"
            }
          ],
          "internalType": "struct MarketListing.MarketItem[]",
          "name": "",
          "type": "tuple[]"
        }
      ],
      "stateMutability": "view",
      "type": "function"
    },
    {
      "inputs": [],
      "name": "itemListingPrice",
      "outputs": [
        {
          "internalType": "uint256",
          "name": "",
          "type": "uint256"
        }
      ],
      "stateMutability": "view",
      "type": "function"
    },
    {
      "inputs": [],
      "name": "owner",
      "outputs": [
        {
          "internalType": "address",
          "name": "",
          "type": "address"
        }
      ],
      "stateMutability": "view",
      "type": "function"
    },
    {
      "inputs": [
        {
          "internalType": "uint256",
          "name": "_price",
          "type": "uint256"
        }
      ],
      "name": "setListingPrice",
      "outputs": [],
      "stateMutability": "nonpayable",
      "type": "function"
    }
  ],
  "bytecode": "0x608060405266038d7ea4c6800060025534801561001b57600080fd5b50600160008190555033600160006101000a81548173ffffffffffffffffffffffffffffffffffffffff021916908373ffffffffffffffffffffffffffffffffffffffff160217905550612461806100746000396000f3fe6080604052600436106100865760003560e01c8063a05edd3f11610059578063a05edd3f14610112578063a425dd091461013d578063b2bdfa7b14610159578063f16d376c14610184578063f7e1ed55146101af57610086565b806358eb2df51461008b5780637c726b69146100a75780638da5cb5b146100d057806392114ad0146100fb575b600080fd5b6100a560048036038101906100a0919061174e565b6101d8565b005b3480156100b357600080fd5b506100ce60048036038101906100c9919061182c565b610563565b005b3480156100dc57600080fd5b506100e56105e2565b6040516100f29190611c8c565b60405180910390f35b34801561010757600080fd5b5061011061060c565b005b34801561011e57600080fd5b50610127610664565b6040516101349190611e2b565b60405180910390f35b6101576004803603810190610152919061170e565b61066a565b005b34801561016557600080fd5b5061016e610983565b60405161017b9190611ca7565b60405180910390f35b34801561019057600080fd5b506101996109a9565b6040516101a69190611cf9565b60405180910390f35b3480156101bb57600080fd5b506101d660048036038101906101d191906117a1565b610c93565b005b6002600054141561021e576040517f08c379a000000000000000000000000000000000000000000000000000000000815260040161021590611e0b565b60405180910390fd5b600260008190555060008111610269576040517f08c379a000000000000000000000000000000000000000000000000000000000815260040161026090611d6b565b60405180910390fd5b61027360036113ee565b600061027f6003611404565b90506102c06040518060400160405280601f81526020017f63726561746564206d61726b6574206974656d20776974682069643a2025730081525082611412565b6040518060e001604052808281526020018481526020018381526020018573ffffffffffffffffffffffffffffffffffffffff1681526020013373ffffffffffffffffffffffffffffffffffffffff168152602001600073ffffffffffffffffffffffffffffffffffffffff1681526020016040518060400160405280600981526020017f617661696c61626c6500000000000000000000000000000000000000000000008152508152506005600083815260200190815260200160002060008201518160000155602082015181600101556040820151816002015560608201518160030160006101000a81548173ffffffffffffffffffffffffffffffffffffffff021916908373ffffffffffffffffffffffffffffffffffffffff16021790555060808201518160040160006101000a81548173ffffffffffffffffffffffffffffffffffffffff021916908373ffffffffffffffffffffffffffffffffffffffff16021790555060a08201518160050160006101000a81548173ffffffffffffffffffffffffffffffffffffffff021916908373ffffffffffffffffffffffffffffffffffffffff16021790555060c082015181600601908051906020019061048d9291906114d7565b509050508373ffffffffffffffffffffffffffffffffffffffff166323b872dd3330866040518463ffffffff1660e01b81526004016104ce93929190611cc2565b600060405180830381600087803b1580156104e857600080fd5b505af11580156104fc573d6000803e3d6000fd5b505050508373ffffffffffffffffffffffffffffffffffffffff1683827fcf656c30d2dad45451ecc5abdfc7fd644513e63ecdf8a58637b5c7473598cc138533600060405161054d93929190611e46565b60405180910390a4506001600081905550505050565b3373ffffffffffffffffffffffffffffffffffffffff166105826105e2565b73ffffffffffffffffffffffffffffffffffffffff16146105d8576040517f08c379a00000000000000000000000000000000000000000000000000000000081526004016105cf90611dab565b60405180910390fd5b8060028190555050565b6000600160009054906101000a900473ffffffffffffffffffffffffffffffffffffffff16905090565b60026000541415610652576040517f08c379a000000000000000000000000000000000000000000000000000000000815260040161064990611e0b565b60405180910390fd5b60026000819055506001600081905550565b60025481565b600260005414156106b0576040517f08c379a00000000000000000000000000000000000000000000000000000000081526004016106a790611e0b565b60405180910390fd5b60026000819055506000600560008381526020019081526020016000209050600081600201549050600082600101549050813414610723576040517f08c379a000000000000000000000000000000000000000000000000000000000815260040161071a90611d8b565b60405180910390fd5b6040518060400160405280600981526020017f617661696c61626c65000000000000000000000000000000000000000000000081525080519060200120836006016040516107719190611c75565b6040518091039020146107b9576040517f08c379a00000000000000000000000000000000000000000000000000000000081526004016107b090611dcb565b60405180910390fd5b8260040160009054906101000a900473ffffffffffffffffffffffffffffffffffffffff1673ffffffffffffffffffffffffffffffffffffffff166108fc349081150290604051600060405180830381858888f19350505050158015610823573d6000803e3d6000fd5b508473ffffffffffffffffffffffffffffffffffffffff166323b872dd3033846040518463ffffffff1660e01b815260040161086193929190611cc2565b600060405180830381600087803b15801561087b57600080fd5b505af115801561088f573d6000803e3d6000fd5b50505050338360050160006101000a81548173ffffffffffffffffffffffffffffffffffffffff021916908373ffffffffffffffffffffffffffffffffffffffff1602179055506040518060400160405280600481526020017f736f6c64000000000000000000000000000000000000000000000000000000008152508360060190805190602001906109239291906114d7565b508473ffffffffffffffffffffffffffffffffffffffff1681857f63620c7091ccac79e9c3f37ed54d4260fe69fcfc8b25e642d99231efbd0c761d8560405161096c9190611e2b565b60405180910390a450505060016000819055505050565b600160009054906101000a900473ffffffffffffffffffffffffffffffffffffffff1681565b606060006109b76003611404565b90506109f86040518060400160405280600f81526020017f746f74616c206974656d733a202573000000000000000000000000000000000081525082611412565b60008167ffffffffffffffff811115610a1457610a13612261565b5b604051908082528060200260200182016040528015610a4d57816020015b610a3a61155d565b815260200190600190039081610a325790505b50905060005b82811015610c8a57600060056000600184610a6e919061200f565b81526020019081526020016000206000015490506000600560008381526020019081526020016000209050806040518060e00160405290816000820154815260200160018201548152602001600282015481526020016003820160009054906101000a900473ffffffffffffffffffffffffffffffffffffffff1673ffffffffffffffffffffffffffffffffffffffff1673ffffffffffffffffffffffffffffffffffffffff1681526020016004820160009054906101000a900473ffffffffffffffffffffffffffffffffffffffff1673ffffffffffffffffffffffffffffffffffffffff1673ffffffffffffffffffffffffffffffffffffffff1681526020016005820160009054906101000a900473ffffffffffffffffffffffffffffffffffffffff1673ffffffffffffffffffffffffffffffffffffffff1673ffffffffffffffffffffffffffffffffffffffff168152602001600682018054610bd590612128565b80601f0160208091040260200160405190810160405280929190818152602001828054610c0190612128565b8015610c4e5780601f10610c2357610100808354040283529160200191610c4e565b820191906000526020600020905b815481529060010190602001808311610c3157829003601f168201915b505050505081525050848481518110610c6a57610c69612232565b5b602002602001018190525050508080610c829061218b565b915050610a53565b50809250505090565b60026000541415610cd9576040517f08c379a0000000000000000000000000000000000000000000000000000000008152600401610cd090611e0b565b60405180910390fd5b600260008190555060005b8351811015610f6157600060056000868481518110610d0657610d05612232565b5b602002602001015181526020019081526020016000206040518060e00160405290816000820154815260200160018201548152602001600282015481526020016003820160009054906101000a900473ffffffffffffffffffffffffffffffffffffffff1673ffffffffffffffffffffffffffffffffffffffff1673ffffffffffffffffffffffffffffffffffffffff1681526020016004820160009054906101000a900473ffffffffffffffffffffffffffffffffffffffff1673ffffffffffffffffffffffffffffffffffffffff1673ffffffffffffffffffffffffffffffffffffffff1681526020016005820160009054906101000a900473ffffffffffffffffffffffffffffffffffffffff1673ffffffffffffffffffffffffffffffffffffffff1673ffffffffffffffffffffffffffffffffffffffff168152602001600682018054610e5790612128565b80601f0160208091040260200160405190810160405280929190818152602001828054610e8390612128565b8015610ed05780601f10610ea557610100808354040283529160200191610ed0565b820191906000526020600020905b815481529060010190602001808311610eb357829003601f168201915b50505050508152505090503373ffffffffffffffffffffffffffffffffffffffff16816080015173ffffffffffffffffffffffffffffffffffffffff1614610f4d576040517f08c379a0000000000000000000000000000000000000000000000000000000008152600401610f4490611deb565b60405180910390fd5b508080610f599061218b565b915050610ce4565b5060005b82518110156111e257600060056000858481518110610f8757610f86612232565b5b602002602001015181526020019081526020016000206040518060e00160405290816000820154815260200160018201548152602001600282015481526020016003820160009054906101000a900473ffffffffffffffffffffffffffffffffffffffff1673ffffffffffffffffffffffffffffffffffffffff1673ffffffffffffffffffffffffffffffffffffffff1681526020016004820160009054906101000a900473ffffffffffffffffffffffffffffffffffffffff1673ffffffffffffffffffffffffffffffffffffffff1673ffffffffffffffffffffffffffffffffffffffff1681526020016005820160009054906101000a900473ffffffffffffffffffffffffffffffffffffffff1673ffffffffffffffffffffffffffffffffffffffff1673ffffffffffffffffffffffffffffffffffffffff1681526020016006820180546110d890612128565b80601f016020809104026020016040519081016040528092919081815260200182805461110490612128565b80156111515780601f1061112657610100808354040283529160200191611151565b820191906000526020600020905b81548152906001019060200180831161113457829003601f168201915b50505050508152505090508273ffffffffffffffffffffffffffffffffffffffff16816080015173ffffffffffffffffffffffffffffffffffffffff16146111ce576040517f08c379a00000000000000000000000000000000000000000000000000000000081526004016111c590611d4b565b60405180910390fd5b5080806111da9061218b565b915050610f65565b506111ed60046113ee565b60006111f96004611404565b905061123a6040518060400160405280600a81526020017f257320747261646549640000000000000000000000000000000000000000000081525082611412565b6040518060c001604052808281526020018581526020018481526020013373ffffffffffffffffffffffffffffffffffffffff1681526020018373ffffffffffffffffffffffffffffffffffffffff16815260200160001515815250600660008381526020019081526020016000206000820151816000015560208201518160010190805190602001906112cf9291906115dc565b5060408201518160020190805190602001906112ec9291906115dc565b5060608201518160030160006101000a81548173ffffffffffffffffffffffffffffffffffffffff021916908373ffffffffffffffffffffffffffffffffffffffff16021790555060808201518160040160006101000a81548173ffffffffffffffffffffffffffffffffffffffff021916908373ffffffffffffffffffffffffffffffffffffffff16021790555060a08201518160040160146101000a81548160ff0219169083151502179055509050507faaefb0394537948912944e22a173aed0d6424cafde1524fb2c9b11d9aa1c70fb818585338660006040516113d896959493929190611e90565b60405180910390a1506001600081905550505050565b6001816000016000828254019250508190555050565b600081600001549050919050565b6114aa8282604051602401611428929190611d1b565b6040516020818303038152906040527f9710a9d0000000000000000000000000000000000000000000000000000000007bffffffffffffffffffffffffffffffffffffffffffffffffffffffff19166020820180517bffffffffffffffffffffffffffffffffffffffffffffffffffffffff83818316178352505050506114ae565b5050565b60008151905060006a636f6e736f6c652e6c6f679050602083016000808483855afa5050505050565b8280546114e390612128565b90600052602060002090601f016020900481019282611505576000855561154c565b82601f1061151e57805160ff191683800117855561154c565b8280016001018555821561154c579182015b8281111561154b578251825591602001919060010190611530565b5b5090506115599190611629565b5090565b6040518060e00160405280600081526020016000815260200160008152602001600073ffffffffffffffffffffffffffffffffffffffff168152602001600073ffffffffffffffffffffffffffffffffffffffff168152602001600073ffffffffffffffffffffffffffffffffffffffff168152602001606081525090565b828054828255906000526020600020908101928215611618579160200282015b828111156116175782518255916020019190600101906115fc565b5b5090506116259190611629565b5090565b5b8082111561164257600081600090555060010161162a565b5090565b600061165961165484611f24565b611eff565b9050808382526020820190508285602086028201111561167c5761167b612295565b5b60005b858110156116ac578161169288826116f9565b84526020840193506020830192505060018101905061167f565b5050509392505050565b6000813590506116c5816123fd565b92915050565b600082601f8301126116e0576116df612290565b5b81356116f0848260208601611646565b91505092915050565b60008135905061170881612414565b92915050565b600080604083850312156117255761172461229f565b5b6000611733858286016116b6565b9250506020611744858286016116f9565b9150509250929050565b6000806000606084860312156117675761176661229f565b5b6000611775868287016116b6565b9350506020611786868287016116f9565b9250506040611797868287016116f9565b9150509250925092565b6000806000606084860312156117ba576117b961229f565b5b600084013567ffffffffffffffff8111156117d8576117d761229a565b5b6117e4868287016116cb565b935050602084013567ffffffffffffffff8111156118055761180461229a565b5b611811868287016116cb565b9250506040611822868287016116b6565b9150509250925092565b6000602082840312156118425761184161229f565b5b6000611850848285016116f9565b91505092915050565b60006118658383611bbb565b905092915050565b60006118798383611c57565b60208301905092915050565b61188e816120bf565b82525050565b61189d81612077565b82525050565b6118ac81612077565b82525050565b6118bb81612065565b82525050565b6118ca81612065565b82525050565b60006118db82611f85565b6118e58185611fc0565b9350836020820285016118f785611f50565b8060005b8581101561193357848403895281516119148582611859565b945061191f83611fa6565b925060208a019950506001810190506118fb565b50829750879550505050505092915050565b600061195082611f90565b61195a8185611fd1565b935061196583611f60565b8060005b8381101561199657815161197d888261186d565b975061198883611fb3565b925050600181019050611969565b5085935050505092915050565b6119ac81612089565b82525050565b600081546119bf81612128565b6119c98186611fe2565b945060018216600081146119e457600181146119f557611a28565b60ff19831686528186019350611a28565b6119fe85611f70565b60005b83811015611a2057815481890152600182019150602081019050611a01565b838801955050505b50505092915050565b6000611a3c82611f9b565b611a468185611fed565b9350611a568185602086016120f5565b611a5f816122a4565b840191505092915050565b6000611a7582611f9b565b611a7f8185611ffe565b9350611a8f8185602086016120f5565b611a98816122a4565b840191505092915050565b6000611ab0600983611ffe565b9150611abb826122b5565b602082019050919050565b6000611ad3601a83611ffe565b9150611ade826122de565b602082019050919050565b6000611af6601383611ffe565b9150611b0182612307565b602082019050919050565b6000611b19601a83611ffe565b9150611b2482612330565b602082019050919050565b6000611b3c602083611ffe565b9150611b4782612359565b602082019050919050565b6000611b5f601b83611ffe565b9150611b6a82612382565b602082019050919050565b6000611b82601a83611ffe565b9150611b8d826123ab565b602082019050919050565b6000611ba5601f83611ffe565b9150611bb0826123d4565b602082019050919050565b600060e083016000830151611bd36000860182611c57565b506020830151611be66020860182611c57565b506040830151611bf96040860182611c57565b506060830151611c0c60608601826118b2565b506080830151611c1f6080860182611894565b5060a0830151611c3260a0860182611894565b5060c083015184820360c0860152611c4a8282611a31565b9150508091505092915050565b611c60816120b5565b82525050565b611c6f816120b5565b82525050565b6000611c8182846119b2565b915081905092915050565b6000602082019050611ca160008301846118c1565b92915050565b6000602082019050611cbc60008301846118a3565b92915050565b6000606082019050611cd760008301866118c1565b611ce460208301856118c1565b611cf16040830184611c66565b949350505050565b60006020820190508181036000830152611d1381846118d0565b905092915050565b60006040820190508181036000830152611d358185611a6a565b9050611d446020830184611c66565b9392505050565b60006020820190508181036000830152611d6481611ac6565b9050919050565b60006020820190508181036000830152611d8481611ae9565b9050919050565b60006020820190508181036000830152611da481611b0c565b9050919050565b60006020820190508181036000830152611dc481611b2f565b9050919050565b60006020820190508181036000830152611de481611b52565b9050919050565b60006020820190508181036000830152611e0481611b75565b9050919050565b60006020820190508181036000830152611e2481611b98565b9050919050565b6000602082019050611e406000830184611c66565b92915050565b6000608082019050611e5b6000830186611c66565b611e686020830185611885565b611e7560408301846118c1565b8181036060830152611e8681611aa3565b9050949350505050565b600060c082019050611ea56000830189611c66565b8181036020830152611eb78188611945565b90508181036040830152611ecb8187611945565b9050611eda60608301866118c1565b611ee760808301856118c1565b611ef460a08301846119a3565b979650505050505050565b6000611f09611f1a565b9050611f15828261215a565b919050565b6000604051905090565b600067ffffffffffffffff821115611f3f57611f3e612261565b5b602082029050602081019050919050565b6000819050602082019050919050565b6000819050602082019050919050565b60008190508160005260206000209050919050565b600081519050919050565b600081519050919050565b600081519050919050565b6000602082019050919050565b6000602082019050919050565b600082825260208201905092915050565b600082825260208201905092915050565b600081905092915050565b600082825260208201905092915050565b600082825260208201905092915050565b600061201a826120b5565b9150612025836120b5565b9250827fffffffffffffffffffffffffffffffffffffffffffffffffffffffffffffffff0382111561205a576120596121d4565b5b828201905092915050565b600061207082612095565b9050919050565b600061208282612095565b9050919050565b60008115159050919050565b600073ffffffffffffffffffffffffffffffffffffffff82169050919050565b6000819050919050565b60006120ca826120d1565b9050919050565b60006120dc826120e3565b9050919050565b60006120ee82612095565b9050919050565b60005b838110156121135780820151818401526020810190506120f8565b83811115612122576000848401525b50505050565b6000600282049050600182168061214057607f821691505b6020821081141561215457612153612203565b5b50919050565b612163826122a4565b810181811067ffffffffffffffff8211171561218257612181612261565b5b80604052505050565b6000612196826120b5565b91507fffffffffffffffffffffffffffffffffffffffffffffffffffffffffffffffff8214156121c9576121c86121d4565b5b600182019050919050565b7f4e487b7100000000000000000000000000000000000000000000000000000000600052601160045260246000fd5b7f4e487b7100000000000000000000000000000000000000000000000000000000600052602260045260246000fd5b7f4e487b7100000000000000000000000000000000000000000000000000000000600052603260045260246000fd5b7f4e487b7100000000000000000000000000000000000000000000000000000000600052604160045260246000fd5b600080fd5b600080fd5b600080fd5b600080fd5b6000601f19601f8301169050919050565b7f617661696c61626c650000000000000000000000000000000000000000000000600082015250565b7f6f666665726565206e6f74206f776e6572206f66207468657365000000000000600082015250565b7f43616e277420736574207072696365203e203000000000000000000000000000600082015250565b7f4e6f7420656e6f7567682045544820666f722070756368617365000000000000600082015250565b7f4f776e61626c653a2063616c6c6572206973206e6f7420746865206f776e6572600082015250565b7f4974656d206973206e6f206c6f6e67657220617661696c61626c650000000000600082015250565b7f6f666665726572206e6f74206f776e6572206f66207468657365000000000000600082015250565b7f5265656e7472616e637947756172643a207265656e7472616e742063616c6c00600082015250565b61240681612065565b811461241157600080fd5b50565b61241d816120b5565b811461242857600080fd5b5056fea2646970667358221220dc7bda56efa39dc9eae251219d0ba21c650886d5f78ab08b73a60bb4423a4d0964736f6c63430008070033",
  "linkReferences": {},
  "deployedLinkReferences": {}
}