{
  "_format": "hh-sol-artifact-1",
  "contractName": "MarketListing",
  "sourceName": "contracts/MarketListing.sol",
  "abi": [
    {
      "anonymous": false,
      "inputs": [
        {
          "indexed": true,
          "internalType": "uint256",
          "name": "itemId",
          "type": "uint256"
        },
        {
          "indexed": true,
          "internalType": "uint256",
          "name": "tokenId",
          "type": "uint256"
        },
        {
          "indexed": false,
          "internalType": "uint256",
          "name": "price",
          "type": "uint256"
        },
        {
          "indexed": true,
          "internalType": "address",
          "name": "nftContract",
          "type": "address"
        },
        {
          "indexed": false,
          "internalType": "address",
          "name": "owner",
          "type": "address"
        },
        {
          "indexed": false,
          "internalType": "string",
          "name": "status",
          "type": "string"
        }
      ],
      "name": "MarketItemCreated",
      "type": "event"
    },
    {
      "anonymous": false,
      "inputs": [
        {
          "indexed": true,
          "internalType": "uint256",
          "name": "itemId",
          "type": "uint256"
        },
        {
          "indexed": true,
          "internalType": "uint256",
          "name": "tokenId",
          "type": "uint256"
        },
        {
          "indexed": false,
          "internalType": "uint256",
          "name": "price",
          "type": "uint256"
        },
        {
          "indexed": true,
          "internalType": "address",
          "name": "nftContract",
          "type": "address"
        }
      ],
      "name": "MarketItemSold",
      "type": "event"
    },
    {
      "anonymous": false,
      "inputs": [
        {
          "indexed": false,
          "internalType": "uint256",
          "name": "tradeId",
          "type": "uint256"
        },
        {
          "indexed": false,
          "internalType": "uint256[]",
          "name": "offererItemsId",
          "type": "uint256[]"
        },
        {
          "indexed": false,
          "internalType": "uint256[]",
          "name": "offereeItemsId",
          "type": "uint256[]"
        },
        {
          "indexed": false,
          "internalType": "address",
          "name": "offerer",
          "type": "address"
        },
        {
          "indexed": false,
          "internalType": "address",
          "name": "offeree",
          "type": "address"
        },
        {
          "indexed": false,
          "internalType": "bool",
          "name": "closed",
          "type": "bool"
        }
      ],
      "name": "MarketTradeCreated",
      "type": "event"
    },
    {
      "inputs": [],
      "name": "_owner",
      "outputs": [
        {
          "internalType": "address payable",
          "name": "",
          "type": "address"
        }
      ],
      "stateMutability": "view",
      "type": "function"
    },
    {
      "inputs": [
        {
          "internalType": "uint256",
          "name": "_tradeOfferId",
          "type": "uint256"
        },
        {
          "internalType": "address",
          "name": "_nftContract",
          "type": "address"
        }
      ],
      "name": "approveTradeOffer",
      "outputs": [],
      "stateMutability": "nonpayable",
      "type": "function"
    },
    {
      "inputs": [
        {
          "internalType": "uint256[]",
          "name": "_offererItemId",
          "type": "uint256[]"
        },
        {
          "internalType": "uint256[]",
          "name": "_offereeItemId",
          "type": "uint256[]"
        },
        {
          "internalType": "address",
          "name": "_offeree",
          "type": "address"
        }
      ],
      "name": "createItemTradeOffer",
      "outputs": [],
      "stateMutability": "nonpayable",
      "type": "function"
    },
    {
      "inputs": [
        {
          "internalType": "address",
          "name": "_nftContract",
          "type": "address"
        },
        {
          "internalType": "uint256",
          "name": "_tokenId",
          "type": "uint256"
        },
        {
          "internalType": "uint256",
          "name": "_price",
          "type": "uint256"
        }
      ],
      "name": "createMarketItem",
      "outputs": [],
      "stateMutability": "payable",
      "type": "function"
    },
    {
      "inputs": [
        {
          "internalType": "address",
          "name": "_nftContract",
          "type": "address"
        },
        {
          "internalType": "uint256",
          "name": "_itemId",
          "type": "uint256"
        }
      ],
      "name": "createMarketItemSale",
      "outputs": [],
      "stateMutability": "payable",
      "type": "function"
    },
    {
      "inputs": [],
      "name": "getAllMarketItems",
      "outputs": [
        {
          "components": [
            {
              "internalType": "uint256",
              "name": "itemId",
              "type": "uint256"
            },
            {
              "internalType": "uint256",
              "name": "tokenId",
              "type": "uint256"
            },
            {
              "internalType": "uint256",
              "name": "price",
              "type": "uint256"
            },
            {
              "internalType": "address",
              "name": "nftContract",
              "type": "address"
            },
            {
              "internalType": "address payable",
              "name": "owner",
              "type": "address"
            },
            {
              "internalType": "string",
              "name": "status",
              "type": "string"
            }
          ],
          "internalType": "struct MarketListing.MarketItem[]",
          "name": "",
          "type": "tuple[]"
        }
      ],
      "stateMutability": "view",
      "type": "function"
    },
    {
      "inputs": [
        {
          "internalType": "address",
          "name": "_user",
          "type": "address"
        }
      ],
      "name": "getUserTradeOffers",
      "outputs": [
        {
          "components": [
            {
              "internalType": "uint256",
              "name": "tradeId",
              "type": "uint256"
            },
            {
              "internalType": "uint256[]",
              "name": "offererItemsId",
              "type": "uint256[]"
            },
            {
              "internalType": "uint256[]",
              "name": "offereeItemsId",
              "type": "uint256[]"
            },
            {
              "internalType": "address",
              "name": "offerer",
              "type": "address"
            },
            {
              "internalType": "address",
              "name": "offeree",
              "type": "address"
            },
            {
              "internalType": "bool",
              "name": "closed",
              "type": "bool"
            }
          ],
          "internalType": "struct MarketListing.MarketTradeOffer[]",
          "name": "",
          "type": "tuple[]"
        }
      ],
      "stateMutability": "view",
      "type": "function"
    },
    {
      "inputs": [],
      "name": "itemListingPrice",
      "outputs": [
        {
          "internalType": "uint256",
          "name": "",
          "type": "uint256"
        }
      ],
      "stateMutability": "view",
      "type": "function"
    },
    {
      "inputs": [],
      "name": "owner",
      "outputs": [
        {
          "internalType": "address",
          "name": "",
          "type": "address"
        }
      ],
      "stateMutability": "view",
      "type": "function"
    },
    {
      "inputs": [
        {
          "internalType": "uint256",
          "name": "_price",
          "type": "uint256"
        }
      ],
      "name": "setListingPrice",
      "outputs": [],
      "stateMutability": "nonpayable",
      "type": "function"
    }
  ],
  "bytecode": "0x608060405266038d7ea4c6800060025534801561001b57600080fd5b50600160008190555033600160006101000a81548173ffffffffffffffffffffffffffffffffffffffff021916908373ffffffffffffffffffffffffffffffffffffffff160217905550612d45806100746000396000f3fe6080604052600436106100915760003560e01c8063a425dd0911610059578063a425dd091461016e578063b2bdfa7b1461018a578063b58027aa146101b5578063f16d376c146101de578063f7e1ed551461020957610091565b806358eb2df5146100965780635dbdb27d146100b25780637c726b69146100ef5780638da5cb5b14610118578063a05edd3f14610143575b600080fd5b6100b060048036038101906100ab9190611db5565b610232565b005b3480156100be57600080fd5b506100d960048036038101906100d49190611d48565b610556565b6040516100e69190612558565b60405180910390f35b3480156100fb57600080fd5b5061011660048036038101906101119190611e93565b61091f565b005b34801561012457600080fd5b5061012d61099e565b60405161013a91906124c9565b60405180910390f35b34801561014f57600080fd5b506101586109c8565b60405161016591906126aa565b60405180910390f35b61018860048036038101906101839190611d75565b6109ce565b005b34801561019657600080fd5b5061019f610ce7565b6040516101ac91906124e4565b60405180910390f35b3480156101c157600080fd5b506101dc60048036038101906101d79190611ec0565b610d0d565b005b3480156101ea57600080fd5b506101f361109e565b6040516102009190612536565b60405180910390f35b34801561021557600080fd5b50610230600480360381019061022b9190611e08565b611332565b005b60026000541415610278576040517f08c379a000000000000000000000000000000000000000000000000000000000815260040161026f9061268a565b60405180910390fd5b6002600081905550600081116102c3576040517f08c379a00000000000000000000000000000000000000000000000000000000081526004016102ba906125ca565b60405180910390fd5b6102cd60036119e1565b60006102d960036119f7565b905061031a6040518060400160405280601f81526020017f63726561746564206d61726b6574206974656d20776974682069643a2025730081525082611a05565b6040518060c001604052808281526020018481526020018381526020018573ffffffffffffffffffffffffffffffffffffffff1681526020013373ffffffffffffffffffffffffffffffffffffffff1681526020016040518060400160405280600981526020017f617661696c61626c6500000000000000000000000000000000000000000000008152508152506005600083815260200190815260200160002060008201518160000155602082015181600101556040820151816002015560608201518160030160006101000a81548173ffffffffffffffffffffffffffffffffffffffff021916908373ffffffffffffffffffffffffffffffffffffffff16021790555060808201518160040160006101000a81548173ffffffffffffffffffffffffffffffffffffffff021916908373ffffffffffffffffffffffffffffffffffffffff16021790555060a0820151816005019080519060200190610483929190611aca565b509050508373ffffffffffffffffffffffffffffffffffffffff166323b872dd3330866040518463ffffffff1660e01b81526004016104c4939291906124ff565b600060405180830381600087803b1580156104de57600080fd5b505af11580156104f2573d6000803e3d6000fd5b505050508373ffffffffffffffffffffffffffffffffffffffff1683827f5e9b758a9434d127aa7ccfb59304efe1e1a8d0754af95dcab3c8e52f109b209785336040516105409291906126c5565b60405180910390a4506001600081905550505050565b6060600061056460046119f7565b90506000805b82811015610683578473ffffffffffffffffffffffffffffffffffffffff166006600060018461059a91906128ca565b815260200190815260200160002060040160009054906101000a900473ffffffffffffffffffffffffffffffffffffffff1673ffffffffffffffffffffffffffffffffffffffff16148061065b57508473ffffffffffffffffffffffffffffffffffffffff166006600060018461061191906128ca565b815260200190815260200160002060030160009054906101000a900473ffffffffffffffffffffffffffffffffffffffff1673ffffffffffffffffffffffffffffffffffffffff16145b156106705760018261066d91906128ca565b91505b808061067b90612a46565b91505061056a565b506000808267ffffffffffffffff8111156106a1576106a0612b1c565b5b6040519080825280602002602001820160405280156106da57816020015b6106c7611b50565b8152602001906001900390816106bf5790505b50905060005b84811015610912576000600660006001846106fb91906128ca565b81526020019081526020016000206040518060c0016040529081600082015481526020016001820180548060200260200160405190810160405280929190818152602001828054801561076d57602002820191906000526020600020905b815481526020019060010190808311610759575b50505050508152602001600282018054806020026020016040519081016040528092919081815260200182805480156107c557602002820191906000526020600020905b8154815260200190600101908083116107b1575b505050505081526020016003820160009054906101000a900473ffffffffffffffffffffffffffffffffffffffff1673ffffffffffffffffffffffffffffffffffffffff1673ffffffffffffffffffffffffffffffffffffffff1681526020016004820160009054906101000a900473ffffffffffffffffffffffffffffffffffffffff1673ffffffffffffffffffffffffffffffffffffffff1673ffffffffffffffffffffffffffffffffffffffff1681526020016004820160149054906101000a900460ff16151515158152505090508773ffffffffffffffffffffffffffffffffffffffff16816080015173ffffffffffffffffffffffffffffffffffffffff1614156108fe57808385815181106108e3576108e2612aed565b5b60200260200101819052506001846108fb91906128ca565b93505b50808061090a90612a46565b9150506106e0565b5080945050505050919050565b3373ffffffffffffffffffffffffffffffffffffffff1661093e61099e565b73ffffffffffffffffffffffffffffffffffffffff1614610994576040517f08c379a000000000000000000000000000000000000000000000000000000000815260040161098b9061262a565b60405180910390fd5b8060028190555050565b6000600160009054906101000a900473ffffffffffffffffffffffffffffffffffffffff16905090565b60025481565b60026000541415610a14576040517f08c379a0000000000000000000000000000000000000000000000000000000008152600401610a0b9061268a565b60405180910390fd5b60026000819055506000600560008381526020019081526020016000209050600081600201549050600082600101549050813414610a87576040517f08c379a0000000000000000000000000000000000000000000000000000000008152600401610a7e9061260a565b60405180910390fd5b6040518060400160405280600981526020017f617661696c61626c6500000000000000000000000000000000000000000000008152508051906020012083600501604051610ad591906124b2565b604051809103902014610b1d576040517f08c379a0000000000000000000000000000000000000000000000000000000008152600401610b149061264a565b60405180910390fd5b8260040160009054906101000a900473ffffffffffffffffffffffffffffffffffffffff1673ffffffffffffffffffffffffffffffffffffffff166108fc349081150290604051600060405180830381858888f19350505050158015610b87573d6000803e3d6000fd5b508473ffffffffffffffffffffffffffffffffffffffff166323b872dd3033846040518463ffffffff1660e01b8152600401610bc5939291906124ff565b600060405180830381600087803b158015610bdf57600080fd5b505af1158015610bf3573d6000803e3d6000fd5b50505050338360040160006101000a81548173ffffffffffffffffffffffffffffffffffffffff021916908373ffffffffffffffffffffffffffffffffffffffff1602179055506040518060400160405280600481526020017f736f6c6400000000000000000000000000000000000000000000000000000000815250836005019080519060200190610c87929190611aca565b508473ffffffffffffffffffffffffffffffffffffffff1681857f63620c7091ccac79e9c3f37ed54d4260fe69fcfc8b25e642d99231efbd0c761d85604051610cd091906126aa565b60405180910390a450505060016000819055505050565b600160009054906101000a900473ffffffffffffffffffffffffffffffffffffffff1681565b60026000541415610d53576040517f08c379a0000000000000000000000000000000000000000000000000000000008152600401610d4a9061268a565b60405180910390fd5b600260008190555060006006600084815260200190815260200160002090503373ffffffffffffffffffffffffffffffffffffffff168160040160009054906101000a900473ffffffffffffffffffffffffffffffffffffffff1673ffffffffffffffffffffffffffffffffffffffff1614610e04576040517f08c379a0000000000000000000000000000000000000000000000000000000008152600401610dfb906125ea565b60405180910390fd5b60005b8160010180549050811015610f1757600060056000846001018481548110610e3257610e31612aed565b5b906000526020600020015481526020019081526020016000209050338160040160006101000a81548173ffffffffffffffffffffffffffffffffffffffff021916908373ffffffffffffffffffffffffffffffffffffffff1602179055508373ffffffffffffffffffffffffffffffffffffffff166323b872dd303384600101546040518463ffffffff1660e01b8152600401610ed1939291906124ff565b600060405180830381600087803b158015610eeb57600080fd5b505af1158015610eff573d6000803e3d6000fd5b50505050508080610f0f90612a46565b915050610e07565b5060005b816002018054905081101561107357600060056000846002018481548110610f4657610f45612aed565b5b9060005260206000200154815260200190815260200160002090508260030160009054906101000a900473ffffffffffffffffffffffffffffffffffffffff168160040160006101000a81548173ffffffffffffffffffffffffffffffffffffffff021916908373ffffffffffffffffffffffffffffffffffffffff1602179055508373ffffffffffffffffffffffffffffffffffffffff166323b872dd308560030160009054906101000a900473ffffffffffffffffffffffffffffffffffffffff1684600101546040518463ffffffff1660e01b815260040161102d939291906124ff565b600060405180830381600087803b15801561104757600080fd5b505af115801561105b573d6000803e3d6000fd5b5050505050808061106b90612a46565b915050610f1b565b5060018160040160146101000a81548160ff0219169083151502179055505060016000819055505050565b606060006110ac60036119f7565b90506110ed6040518060400160405280600f81526020017f746f74616c206974656d733a202573000000000000000000000000000000000081525082611a05565b60008167ffffffffffffffff81111561110957611108612b1c565b5b60405190808252806020026020018201604052801561114257816020015b61112f611bb4565b8152602001906001900390816111275790505b50905060005b828110156113295760006005600060018461116391906128ca565b81526020019081526020016000206000015490506000600560008381526020019081526020016000209050806040518060c00160405290816000820154815260200160018201548152602001600282015481526020016003820160009054906101000a900473ffffffffffffffffffffffffffffffffffffffff1673ffffffffffffffffffffffffffffffffffffffff1673ffffffffffffffffffffffffffffffffffffffff1681526020016004820160009054906101000a900473ffffffffffffffffffffffffffffffffffffffff1673ffffffffffffffffffffffffffffffffffffffff1673ffffffffffffffffffffffffffffffffffffffff168152602001600582018054611274906129e3565b80601f01602080910402602001604051908101604052809291908181526020018280546112a0906129e3565b80156112ed5780601f106112c2576101008083540402835291602001916112ed565b820191906000526020600020905b8154815290600101906020018083116112d057829003601f168201915b50505050508152505084848151811061130957611308612aed565b5b60200260200101819052505050808061132190612a46565b915050611148565b50809250505090565b60026000541415611378576040517f08c379a000000000000000000000000000000000000000000000000000000000815260040161136f9061268a565b60405180910390fd5b600260008190555060005b83518110156115aa576000600560008684815181106113a5576113a4612aed565b5b602002602001015181526020019081526020016000206040518060c00160405290816000820154815260200160018201548152602001600282015481526020016003820160009054906101000a900473ffffffffffffffffffffffffffffffffffffffff1673ffffffffffffffffffffffffffffffffffffffff1673ffffffffffffffffffffffffffffffffffffffff1681526020016004820160009054906101000a900473ffffffffffffffffffffffffffffffffffffffff1673ffffffffffffffffffffffffffffffffffffffff1673ffffffffffffffffffffffffffffffffffffffff1681526020016005820180546114a0906129e3565b80601f01602080910402602001604051908101604052809291908181526020018280546114cc906129e3565b80156115195780601f106114ee57610100808354040283529160200191611519565b820191906000526020600020905b8154815290600101906020018083116114fc57829003601f168201915b50505050508152505090503373ffffffffffffffffffffffffffffffffffffffff16816080015173ffffffffffffffffffffffffffffffffffffffff1614611596576040517f08c379a000000000000000000000000000000000000000000000000000000000815260040161158d9061266a565b60405180910390fd5b5080806115a290612a46565b915050611383565b5060005b82518110156117d5576000600560008584815181106115d0576115cf612aed565b5b602002602001015181526020019081526020016000206040518060c00160405290816000820154815260200160018201548152602001600282015481526020016003820160009054906101000a900473ffffffffffffffffffffffffffffffffffffffff1673ffffffffffffffffffffffffffffffffffffffff1673ffffffffffffffffffffffffffffffffffffffff1681526020016004820160009054906101000a900473ffffffffffffffffffffffffffffffffffffffff1673ffffffffffffffffffffffffffffffffffffffff1673ffffffffffffffffffffffffffffffffffffffff1681526020016005820180546116cb906129e3565b80601f01602080910402602001604051908101604052809291908181526020018280546116f7906129e3565b80156117445780601f1061171957610100808354040283529160200191611744565b820191906000526020600020905b81548152906001019060200180831161172757829003601f168201915b50505050508152505090508273ffffffffffffffffffffffffffffffffffffffff16816080015173ffffffffffffffffffffffffffffffffffffffff16146117c1576040517f08c379a00000000000000000000000000000000000000000000000000000000081526004016117b8906125aa565b60405180910390fd5b5080806117cd90612a46565b9150506115ae565b506117e060046119e1565b60006117ec60046119f7565b905061182d6040518060400160405280600a81526020017f257320747261646549640000000000000000000000000000000000000000000081525082611a05565b6040518060c001604052808281526020018581526020018481526020013373ffffffffffffffffffffffffffffffffffffffff1681526020018373ffffffffffffffffffffffffffffffffffffffff16815260200160001515815250600660008381526020019081526020016000206000820151816000015560208201518160010190805190602001906118c2929190611c16565b5060408201518160020190805190602001906118df929190611c16565b5060608201518160030160006101000a81548173ffffffffffffffffffffffffffffffffffffffff021916908373ffffffffffffffffffffffffffffffffffffffff16021790555060808201518160040160006101000a81548173ffffffffffffffffffffffffffffffffffffffff021916908373ffffffffffffffffffffffffffffffffffffffff16021790555060a08201518160040160146101000a81548160ff0219169083151502179055509050507faaefb0394537948912944e22a173aed0d6424cafde1524fb2c9b11d9aa1c70fb818585338660006040516119cb96959493929190612701565b60405180910390a1506001600081905550505050565b6001816000016000828254019250508190555050565b600081600001549050919050565b611a9d8282604051602401611a1b92919061257a565b6040516020818303038152906040527f9710a9d0000000000000000000000000000000000000000000000000000000007bffffffffffffffffffffffffffffffffffffffffffffffffffffffff19166020820180517bffffffffffffffffffffffffffffffffffffffffffffffffffffffff8381831617835250505050611aa1565b5050565b60008151905060006a636f6e736f6c652e6c6f679050602083016000808483855afa5050505050565b828054611ad6906129e3565b90600052602060002090601f016020900481019282611af85760008555611b3f565b82601f10611b1157805160ff1916838001178555611b3f565b82800160010185558215611b3f579182015b82811115611b3e578251825591602001919060010190611b23565b5b509050611b4c9190611c63565b5090565b6040518060c00160405280600081526020016060815260200160608152602001600073ffffffffffffffffffffffffffffffffffffffff168152602001600073ffffffffffffffffffffffffffffffffffffffff1681526020016000151581525090565b6040518060c00160405280600081526020016000815260200160008152602001600073ffffffffffffffffffffffffffffffffffffffff168152602001600073ffffffffffffffffffffffffffffffffffffffff168152602001606081525090565b828054828255906000526020600020908101928215611c52579160200282015b82811115611c51578251825591602001919060010190611c36565b5b509050611c5f9190611c63565b5090565b5b80821115611c7c576000816000905550600101611c64565b5090565b6000611c93611c8e84612795565b612770565b90508083825260208201905082856020860282011115611cb657611cb5612b50565b5b60005b85811015611ce65781611ccc8882611d33565b845260208401935060208301925050600181019050611cb9565b5050509392505050565b600081359050611cff81612ce1565b92915050565b600082601f830112611d1a57611d19612b4b565b5b8135611d2a848260208601611c80565b91505092915050565b600081359050611d4281612cf8565b92915050565b600060208284031215611d5e57611d5d612b5a565b5b6000611d6c84828501611cf0565b91505092915050565b60008060408385031215611d8c57611d8b612b5a565b5b6000611d9a85828601611cf0565b9250506020611dab85828601611d33565b9150509250929050565b600080600060608486031215611dce57611dcd612b5a565b5b6000611ddc86828701611cf0565b9350506020611ded86828701611d33565b9250506040611dfe86828701611d33565b9150509250925092565b600080600060608486031215611e2157611e20612b5a565b5b600084013567ffffffffffffffff811115611e3f57611e3e612b55565b5b611e4b86828701611d05565b935050602084013567ffffffffffffffff811115611e6c57611e6b612b55565b5b611e7886828701611d05565b9250506040611e8986828701611cf0565b9150509250925092565b600060208284031215611ea957611ea8612b5a565b5b6000611eb784828501611d33565b91505092915050565b60008060408385031215611ed757611ed6612b5a565b5b6000611ee585828601611d33565b9250506020611ef685828601611cf0565b9150509250929050565b6000611f0c838361237b565b905092915050565b6000611f208383612404565b905092915050565b6000611f348383612494565b60208301905092915050565b611f498161297a565b82525050565b611f5881612932565b82525050565b611f6781612932565b82525050565b611f7681612920565b82525050565b611f8581612920565b82525050565b6000611f9682612806565b611fa08185612859565b935083602082028501611fb2856127c1565b8060005b85811015611fee5784840389528151611fcf8582611f00565b9450611fda83612832565b925060208a01995050600181019050611fb6565b50829750879550505050505092915050565b600061200b82612811565b612015818561286a565b935083602082028501612027856127d1565b8060005b8581101561206357848403895281516120448582611f14565b945061204f8361283f565b925060208a0199505060018101905061202b565b50829750879550505050505092915050565b60006120808261281c565b61208a818561287b565b9350612095836127e1565b8060005b838110156120c65781516120ad8882611f28565b97506120b88361284c565b925050600181019050612099565b5085935050505092915050565b60006120de8261281c565b6120e8818561288c565b93506120f3836127e1565b8060005b8381101561212457815161210b8882611f28565b97506121168361284c565b9250506001810190506120f7565b5085935050505092915050565b61213a81612944565b82525050565b61214981612944565b82525050565b6000815461215c816129e3565b612166818661289d565b945060018216600081146121815760018114612192576121c5565b60ff198316865281860193506121c5565b61219b856127f1565b60005b838110156121bd5781548189015260018201915060208101905061219e565b838801955050505b50505092915050565b60006121d982612827565b6121e381856128a8565b93506121f38185602086016129b0565b6121fc81612b5f565b840191505092915050565b600061221282612827565b61221c81856128b9565b935061222c8185602086016129b0565b61223581612b5f565b840191505092915050565b600061224d6009836128b9565b915061225882612b70565b602082019050919050565b6000612270601a836128b9565b915061227b82612b99565b602082019050919050565b60006122936013836128b9565b915061229e82612bc2565b602082019050919050565b60006122b6601b836128b9565b91506122c182612beb565b602082019050919050565b60006122d9601a836128b9565b91506122e482612c14565b602082019050919050565b60006122fc6020836128b9565b915061230782612c3d565b602082019050919050565b600061231f601b836128b9565b915061232a82612c66565b602082019050919050565b6000612342601a836128b9565b915061234d82612c8f565b602082019050919050565b6000612365601f836128b9565b915061237082612cb8565b602082019050919050565b600060c0830160008301516123936000860182612494565b5060208301516123a66020860182612494565b5060408301516123b96040860182612494565b5060608301516123cc6060860182611f6d565b5060808301516123df6080860182611f4f565b5060a083015184820360a08601526123f782826121ce565b9150508091505092915050565b600060c08301600083015161241c6000860182612494565b50602083015184820360208601526124348282612075565b9150506040830151848203604086015261244e8282612075565b91505060608301516124636060860182611f6d565b5060808301516124766080860182611f6d565b5060a083015161248960a0860182612131565b508091505092915050565b61249d81612970565b82525050565b6124ac81612970565b82525050565b60006124be828461214f565b915081905092915050565b60006020820190506124de6000830184611f7c565b92915050565b60006020820190506124f96000830184611f5e565b92915050565b60006060820190506125146000830186611f7c565b6125216020830185611f7c565b61252e60408301846124a3565b949350505050565b600060208201905081810360008301526125508184611f8b565b905092915050565b600060208201905081810360008301526125728184612000565b905092915050565b600060408201905081810360008301526125948185612207565b90506125a360208301846124a3565b9392505050565b600060208201905081810360008301526125c381612263565b9050919050565b600060208201905081810360008301526125e381612286565b9050919050565b60006020820190508181036000830152612603816122a9565b9050919050565b60006020820190508181036000830152612623816122cc565b9050919050565b60006020820190508181036000830152612643816122ef565b9050919050565b6000602082019050818103600083015261266381612312565b9050919050565b6000602082019050818103600083015261268381612335565b9050919050565b600060208201905081810360008301526126a381612358565b9050919050565b60006020820190506126bf60008301846124a3565b92915050565b60006060820190506126da60008301856124a3565b6126e76020830184611f40565b81810360408301526126f881612240565b90509392505050565b600060c08201905061271660008301896124a3565b818103602083015261272881886120d3565b9050818103604083015261273c81876120d3565b905061274b6060830186611f7c565b6127586080830185611f7c565b61276560a0830184612140565b979650505050505050565b600061277a61278b565b90506127868282612a15565b919050565b6000604051905090565b600067ffffffffffffffff8211156127b0576127af612b1c565b5b602082029050602081019050919050565b6000819050602082019050919050565b6000819050602082019050919050565b6000819050602082019050919050565b60008190508160005260206000209050919050565b600081519050919050565b600081519050919050565b600081519050919050565b600081519050919050565b6000602082019050919050565b6000602082019050919050565b6000602082019050919050565b600082825260208201905092915050565b600082825260208201905092915050565b600082825260208201905092915050565b600082825260208201905092915050565b600081905092915050565b600082825260208201905092915050565b600082825260208201905092915050565b60006128d582612970565b91506128e083612970565b9250827fffffffffffffffffffffffffffffffffffffffffffffffffffffffffffffffff0382111561291557612914612a8f565b5b828201905092915050565b600061292b82612950565b9050919050565b600061293d82612950565b9050919050565b60008115159050919050565b600073ffffffffffffffffffffffffffffffffffffffff82169050919050565b6000819050919050565b60006129858261298c565b9050919050565b60006129978261299e565b9050919050565b60006129a982612950565b9050919050565b60005b838110156129ce5780820151818401526020810190506129b3565b838111156129dd576000848401525b50505050565b600060028204905060018216806129fb57607f821691505b60208210811415612a0f57612a0e612abe565b5b50919050565b612a1e82612b5f565b810181811067ffffffffffffffff82111715612a3d57612a3c612b1c565b5b80604052505050565b6000612a5182612970565b91507fffffffffffffffffffffffffffffffffffffffffffffffffffffffffffffffff821415612a8457612a83612a8f565b5b600182019050919050565b7f4e487b7100000000000000000000000000000000000000000000000000000000600052601160045260246000fd5b7f4e487b7100000000000000000000000000000000000000000000000000000000600052602260045260246000fd5b7f4e487b7100000000000000000000000000000000000000000000000000000000600052603260045260246000fd5b7f4e487b7100000000000000000000000000000000000000000000000000000000600052604160045260246000fd5b600080fd5b600080fd5b600080fd5b600080fd5b6000601f19601f8301169050919050565b7f617661696c61626c650000000000000000000000000000000000000000000000600082015250565b7f6f666665726565206e6f74206f776e6572206f66207468657365000000000000600082015250565b7f43616e277420736574207072696365203e203000000000000000000000000000600082015250565b7f74686973206f66666572206973206e6f7420617661696c61626c650000000000600082015250565b7f4e6f7420656e6f7567682045544820666f722070756368617365000000000000600082015250565b7f4f776e61626c653a2063616c6c6572206973206e6f7420746865206f776e6572600082015250565b7f4974656d206973206e6f206c6f6e67657220617661696c61626c650000000000600082015250565b7f6f666665726572206e6f74206f776e6572206f66207468657365000000000000600082015250565b7f5265656e7472616e637947756172643a207265656e7472616e742063616c6c00600082015250565b612cea81612920565b8114612cf557600080fd5b50565b612d0181612970565b8114612d0c57600080fd5b5056fea2646970667358221220c0665c1c23384126e355a74c6006027b0541173a3087776eb6c40514ac69ce6c64736f6c63430008070033",
  "linkReferences": {},
  "deployedLinkReferences": {}
}