{
  "_format": "hh-sol-artifact-1",
  "contractName": "Marketplace",
  "sourceName": "contracts/MarketPlace.sol",
  "abi": [
    {
      "inputs": [],
      "stateMutability": "nonpayable",
      "type": "constructor"
    },
    {
      "inputs": [],
      "name": "_owner",
      "outputs": [
        {
          "internalType": "address payable",
          "name": "",
          "type": "address"
        }
      ],
      "stateMutability": "view",
      "type": "function"
    },
    {
      "inputs": [],
      "name": "itemListingPrice",
      "outputs": [
        {
          "internalType": "uint256",
          "name": "",
          "type": "uint256"
        }
      ],
      "stateMutability": "view",
      "type": "function"
    },
    {
      "inputs": [],
      "name": "owner",
      "outputs": [
        {
          "internalType": "address",
          "name": "",
          "type": "address"
        }
      ],
      "stateMutability": "view",
      "type": "function"
    },
    {
      "inputs": [
        {
          "internalType": "uint256",
          "name": "_price",
          "type": "uint256"
        }
      ],
      "name": "setListingPrice",
      "outputs": [],
      "stateMutability": "nonpayable",
      "type": "function"
    }
  ],
  "bytecode": "0x608060405266038d7ea4c6800060015534801561001b57600080fd5b50336000806101000a81548173ffffffffffffffffffffffffffffffffffffffff021916908373ffffffffffffffffffffffffffffffffffffffff1602179055506103768061006b6000396000f3fe608060405234801561001057600080fd5b506004361061004c5760003560e01c80637c726b69146100515780638da5cb5b1461006d578063a05edd3f1461008b578063b2bdfa7b146100a9575b600080fd5b61006b600480360381019061006691906101ae565b6100c7565b005b610075610146565b604051610082919061022b565b60405180910390f35b61009361016f565b6040516100a09190610281565b60405180910390f35b6100b1610175565b6040516100be9190610246565b60405180910390f35b3373ffffffffffffffffffffffffffffffffffffffff166100e6610146565b73ffffffffffffffffffffffffffffffffffffffff161461013c576040517f08c379a000000000000000000000000000000000000000000000000000000000815260040161013390610261565b60405180910390fd5b8060018190555050565b60008060009054906101000a900473ffffffffffffffffffffffffffffffffffffffff16905090565b60015481565b60008054906101000a900473ffffffffffffffffffffffffffffffffffffffff1681565b6000813590506101a881610329565b92915050565b6000602082840312156101c4576101c36102fb565b5b60006101d284828501610199565b91505092915050565b6101e4816102bf565b82525050565b6101f3816102ad565b82525050565b600061020660208361029c565b915061021182610300565b602082019050919050565b610225816102f1565b82525050565b600060208201905061024060008301846101ea565b92915050565b600060208201905061025b60008301846101db565b92915050565b6000602082019050818103600083015261027a816101f9565b9050919050565b6000602082019050610296600083018461021c565b92915050565b600082825260208201905092915050565b60006102b8826102d1565b9050919050565b60006102ca826102d1565b9050919050565b600073ffffffffffffffffffffffffffffffffffffffff82169050919050565b6000819050919050565b600080fd5b7f4f776e61626c653a2063616c6c6572206973206e6f7420746865206f776e6572600082015250565b610332816102f1565b811461033d57600080fd5b5056fea2646970667358221220d46728cd4c68b35fc16b99f899310275fb73e562b7c084a88326be56e1fd76c064736f6c63430008070033",
  "linkReferences": {},
  "deployedLinkReferences": {}
}