{
  "_format": "hh-sol-artifact-1",
  "contractName": "NFT",
  "sourceName": "contracts/NFT.sol",
  "abi": [
    {
      "inputs": [
        {
          "internalType": "address",
          "name": "_marketplaceAddress",
          "type": "address"
        }
      ],
      "stateMutability": "nonpayable",
      "type": "constructor"
    },
    {
      "anonymous": false,
      "inputs": [
        {
          "indexed": true,
          "internalType": "address",
          "name": "owner",
          "type": "address"
        },
        {
          "indexed": true,
          "internalType": "address",
          "name": "approved",
          "type": "address"
        },
        {
          "indexed": true,
          "internalType": "uint256",
          "name": "tokenId",
          "type": "uint256"
        }
      ],
      "name": "Approval",
      "type": "event"
    },
    {
      "anonymous": false,
      "inputs": [
        {
          "indexed": true,
          "internalType": "address",
          "name": "owner",
          "type": "address"
        },
        {
          "indexed": true,
          "internalType": "address",
          "name": "operator",
          "type": "address"
        },
        {
          "indexed": false,
          "internalType": "bool",
          "name": "approved",
          "type": "bool"
        }
      ],
      "name": "ApprovalForAll",
      "type": "event"
    },
    {
      "anonymous": false,
      "inputs": [
        {
          "indexed": false,
          "internalType": "uint256",
          "name": "newItemId",
          "type": "uint256"
        }
      ],
      "name": "TokenCreated",
      "type": "event"
    },
    {
      "anonymous": false,
      "inputs": [
        {
          "indexed": true,
          "internalType": "address",
          "name": "from",
          "type": "address"
        },
        {
          "indexed": true,
          "internalType": "address",
          "name": "to",
          "type": "address"
        },
        {
          "indexed": true,
          "internalType": "uint256",
          "name": "tokenId",
          "type": "uint256"
        }
      ],
      "name": "Transfer",
      "type": "event"
    },
    {
      "inputs": [
        {
          "internalType": "address",
          "name": "to",
          "type": "address"
        },
        {
          "internalType": "uint256",
          "name": "tokenId",
          "type": "uint256"
        }
      ],
      "name": "approve",
      "outputs": [],
      "stateMutability": "nonpayable",
      "type": "function"
    },
    {
      "inputs": [
        {
          "internalType": "address",
          "name": "owner",
          "type": "address"
        }
      ],
      "name": "balanceOf",
      "outputs": [
        {
          "internalType": "uint256",
          "name": "",
          "type": "uint256"
        }
      ],
      "stateMutability": "view",
      "type": "function"
    },
    {
      "inputs": [
        {
          "internalType": "string",
          "name": "tokenURI",
          "type": "string"
        }
      ],
      "name": "createToken",
      "outputs": [
        {
          "internalType": "uint256",
          "name": "",
          "type": "uint256"
        }
      ],
      "stateMutability": "nonpayable",
      "type": "function"
    },
    {
      "inputs": [
        {
          "internalType": "uint256",
          "name": "tokenId",
          "type": "uint256"
        }
      ],
      "name": "getApproved",
      "outputs": [
        {
          "internalType": "address",
          "name": "",
          "type": "address"
        }
      ],
      "stateMutability": "view",
      "type": "function"
    },
    {
      "inputs": [
        {
          "internalType": "address",
          "name": "owner",
          "type": "address"
        },
        {
          "internalType": "address",
          "name": "operator",
          "type": "address"
        }
      ],
      "name": "isApprovedForAll",
      "outputs": [
        {
          "internalType": "bool",
          "name": "",
          "type": "bool"
        }
      ],
      "stateMutability": "view",
      "type": "function"
    },
    {
      "inputs": [],
      "name": "marketplaceAddress",
      "outputs": [
        {
          "internalType": "address",
          "name": "",
          "type": "address"
        }
      ],
      "stateMutability": "view",
      "type": "function"
    },
    {
      "inputs": [],
      "name": "name",
      "outputs": [
        {
          "internalType": "string",
          "name": "",
          "type": "string"
        }
      ],
      "stateMutability": "view",
      "type": "function"
    },
    {
      "inputs": [
        {
          "internalType": "uint256",
          "name": "tokenId",
          "type": "uint256"
        }
      ],
      "name": "ownerOf",
      "outputs": [
        {
          "internalType": "address",
          "name": "",
          "type": "address"
        }
      ],
      "stateMutability": "view",
      "type": "function"
    },
    {
      "inputs": [
        {
          "internalType": "address",
          "name": "from",
          "type": "address"
        },
        {
          "internalType": "address",
          "name": "to",
          "type": "address"
        },
        {
          "internalType": "uint256",
          "name": "tokenId",
          "type": "uint256"
        }
      ],
      "name": "safeTransferFrom",
      "outputs": [],
      "stateMutability": "nonpayable",
      "type": "function"
    },
    {
      "inputs": [
        {
          "internalType": "address",
          "name": "from",
          "type": "address"
        },
        {
          "internalType": "address",
          "name": "to",
          "type": "address"
        },
        {
          "internalType": "uint256",
          "name": "tokenId",
          "type": "uint256"
        },
        {
          "internalType": "bytes",
          "name": "_data",
          "type": "bytes"
        }
      ],
      "name": "safeTransferFrom",
      "outputs": [],
      "stateMutability": "nonpayable",
      "type": "function"
    },
    {
      "inputs": [
        {
          "internalType": "address",
          "name": "operator",
          "type": "address"
        },
        {
          "internalType": "bool",
          "name": "approved",
          "type": "bool"
        }
      ],
      "name": "setApprovalForAll",
      "outputs": [],
      "stateMutability": "nonpayable",
      "type": "function"
    },
    {
      "inputs": [
        {
          "internalType": "bytes4",
          "name": "interfaceId",
          "type": "bytes4"
        }
      ],
      "name": "supportsInterface",
      "outputs": [
        {
          "internalType": "bool",
          "name": "",
          "type": "bool"
        }
      ],
      "stateMutability": "view",
      "type": "function"
    },
    {
      "inputs": [],
      "name": "symbol",
      "outputs": [
        {
          "internalType": "string",
          "name": "",
          "type": "string"
        }
      ],
      "stateMutability": "view",
      "type": "function"
    },
    {
      "inputs": [
        {
          "internalType": "uint256",
          "name": "tokenId",
          "type": "uint256"
        }
      ],
      "name": "tokenURI",
      "outputs": [
        {
          "internalType": "string",
          "name": "",
          "type": "string"
        }
      ],
      "stateMutability": "view",
      "type": "function"
    },
    {
      "inputs": [
        {
          "internalType": "address",
          "name": "from",
          "type": "address"
        },
        {
          "internalType": "address",
          "name": "to",
          "type": "address"
        },
        {
          "internalType": "uint256",
          "name": "tokenId",
          "type": "uint256"
        }
      ],
      "name": "transferFrom",
      "outputs": [],
      "stateMutability": "nonpayable",
      "type": "function"
    }
  ],
  "bytecode": "0x60806040523480156200001157600080fd5b5060405162003084380380620030848339818101604052810190620000379190620001e6565b6040518060400160405280601281526020017f436c6f736564204c616e6420546f6b656e7300000000000000000000000000008152506040518060400160405280600381526020017f434c5400000000000000000000000000000000000000000000000000000000008152508160009080519060200190620000bb9291906200011f565b508060019080519060200190620000d49291906200011f565b50505080600860006101000a81548173ffffffffffffffffffffffffffffffffffffffff021916908373ffffffffffffffffffffffffffffffffffffffff16021790555050620002d0565b8280546200012d906200024c565b90600052602060002090601f0160209004810192826200015157600085556200019d565b82601f106200016c57805160ff19168380011785556200019d565b828001600101855582156200019d579182015b828111156200019c5782518255916020019190600101906200017f565b5b509050620001ac9190620001b0565b5090565b5b80821115620001cb576000816000905550600101620001b1565b5090565b600081519050620001e081620002b6565b92915050565b600060208284031215620001ff57620001fe620002b1565b5b60006200020f84828501620001cf565b91505092915050565b600062000225826200022c565b9050919050565b600073ffffffffffffffffffffffffffffffffffffffff82169050919050565b600060028204905060018216806200026557607f821691505b602082108114156200027c576200027b62000282565b5b50919050565b7f4e487b7100000000000000000000000000000000000000000000000000000000600052602260045260246000fd5b600080fd5b620002c18162000218565b8114620002cd57600080fd5b50565b612da480620002e06000396000f3fe608060405234801561001057600080fd5b50600436106100f55760003560e01c80636352211e11610097578063b88d4fde11610066578063b88d4fde14610296578063c87b56dd146102b2578063daa17f49146102e2578063e985e9c514610300576100f5565b80636352211e146101fc57806370a082311461022c57806395d89b411461025c578063a22cb4651461027a576100f5565b8063095ea7b3116100d3578063095ea7b31461017857806323b872dd1461019457806342842e0e146101b057806345576f94146101cc576100f5565b806301ffc9a7146100fa57806306fdde031461012a578063081812fc14610148575b600080fd5b610114600480360381019061010f9190611d89565b610330565b60405161012191906121e4565b60405180910390f35b610132610412565b60405161013f91906121ff565b60405180910390f35b610162600480360381019061015d9190611e2c565b6104a4565b60405161016f919061217d565b60405180910390f35b610192600480360381019061018d9190611d49565b610529565b005b6101ae60048036038101906101a99190611c33565b610641565b005b6101ca60048036038101906101c59190611c33565b6106a1565b005b6101e660048036038101906101e19190611de3565b6106c1565b6040516101f39190612451565b60405180910390f35b61021660048036038101906102119190611e2c565b61079b565b604051610223919061217d565b60405180910390f35b61024660048036038101906102419190611bc6565b61084d565b6040516102539190612451565b60405180910390f35b610264610905565b60405161027191906121ff565b60405180910390f35b610294600480360381019061028f9190611d09565b610997565b005b6102b060048036038101906102ab9190611c86565b6109ad565b005b6102cc60048036038101906102c79190611e2c565b610a0f565b6040516102d991906121ff565b60405180910390f35b6102ea610b61565b6040516102f7919061217d565b60405180910390f35b61031a60048036038101906103159190611bf3565b610b87565b60405161032791906121e4565b60405180910390f35b60007f80ac58cd000000000000000000000000000000000000000000000000000000007bffffffffffffffffffffffffffffffffffffffffffffffffffffffff1916827bffffffffffffffffffffffffffffffffffffffffffffffffffffffff191614806103fb57507f5b5e139f000000000000000000000000000000000000000000000000000000007bffffffffffffffffffffffffffffffffffffffffffffffffffffffff1916827bffffffffffffffffffffffffffffffffffffffffffffffffffffffff1916145b8061040b575061040a82610c1b565b5b9050919050565b606060008054610421906126a7565b80601f016020809104026020016040519081016040528092919081815260200182805461044d906126a7565b801561049a5780601f1061046f5761010080835404028352916020019161049a565b820191906000526020600020905b81548152906001019060200180831161047d57829003601f168201915b5050505050905090565b60006104af82610c85565b6104ee576040517f08c379a00000000000000000000000000000000000000000000000000000000081526004016104e5906123d1565b60405180910390fd5b6004600083815260200190815260200160002060009054906101000a900473ffffffffffffffffffffffffffffffffffffffff169050919050565b60006105348261079b565b90508073ffffffffffffffffffffffffffffffffffffffff168373ffffffffffffffffffffffffffffffffffffffff1614156105a5576040517f08c379a000000000000000000000000000000000000000000000000000000000815260040161059c90612411565b60405180910390fd5b8073ffffffffffffffffffffffffffffffffffffffff166105c4610cf1565b73ffffffffffffffffffffffffffffffffffffffff1614806105f357506105f2816105ed610cf1565b610b87565b5b610632576040517f08c379a000000000000000000000000000000000000000000000000000000000815260040161062990612311565b60405180910390fd5b61063c8383610cf9565b505050565b61065261064c610cf1565b82610db2565b610691576040517f08c379a000000000000000000000000000000000000000000000000000000000815260040161068890612431565b60405180910390fd5b61069c838383610e90565b505050565b6106bc838383604051806020016040528060008152506109ad565b505050565b60006106cd60076110f7565b60006106d9600761110d565b905061071a6040518060400160405280601781526020017f5468697320697320796f757220746f6b656e3a202573200000000000000000008152508261111b565b61072433826111b7565b61072e8184611391565b61075b600860009054906101000a900473ffffffffffffffffffffffffffffffffffffffff166001610997565b7f5871761b381266e7e47309f0821d5b396364ebb6371d878871cac5393cb93ea88160405161078a9190612451565b60405180910390a180915050919050565b6000806002600084815260200190815260200160002060009054906101000a900473ffffffffffffffffffffffffffffffffffffffff169050600073ffffffffffffffffffffffffffffffffffffffff168173ffffffffffffffffffffffffffffffffffffffff161415610844576040517f08c379a000000000000000000000000000000000000000000000000000000000815260040161083b90612351565b60405180910390fd5b80915050919050565b60008073ffffffffffffffffffffffffffffffffffffffff168273ffffffffffffffffffffffffffffffffffffffff1614156108be576040517f08c379a00000000000000000000000000000000000000000000000000000000081526004016108b590612331565b60405180910390fd5b600360008373ffffffffffffffffffffffffffffffffffffffff1673ffffffffffffffffffffffffffffffffffffffff168152602001908152602001600020549050919050565b606060018054610914906126a7565b80601f0160208091040260200160405190810160405280929190818152602001828054610940906126a7565b801561098d5780601f106109625761010080835404028352916020019161098d565b820191906000526020600020905b81548152906001019060200180831161097057829003601f168201915b5050505050905090565b6109a96109a2610cf1565b8383611405565b5050565b6109be6109b8610cf1565b83610db2565b6109fd576040517f08c379a00000000000000000000000000000000000000000000000000000000081526004016109f490612431565b60405180910390fd5b610a0984848484611572565b50505050565b6060610a1a82610c85565b610a59576040517f08c379a0000000000000000000000000000000000000000000000000000000008152600401610a50906123b1565b60405180910390fd5b6000600660008481526020019081526020016000208054610a79906126a7565b80601f0160208091040260200160405190810160405280929190818152602001828054610aa5906126a7565b8015610af25780601f10610ac757610100808354040283529160200191610af2565b820191906000526020600020905b815481529060010190602001808311610ad557829003601f168201915b505050505090506000610b036115ce565b9050600081511415610b19578192505050610b5c565b600082511115610b4e578082604051602001610b36929190612159565b60405160208183030381529060405292505050610b5c565b610b57846115e5565b925050505b919050565b600860009054906101000a900473ffffffffffffffffffffffffffffffffffffffff1681565b6000600560008473ffffffffffffffffffffffffffffffffffffffff1673ffffffffffffffffffffffffffffffffffffffff16815260200190815260200160002060008373ffffffffffffffffffffffffffffffffffffffff1673ffffffffffffffffffffffffffffffffffffffff16815260200190815260200160002060009054906101000a900460ff16905092915050565b60007f01ffc9a7000000000000000000000000000000000000000000000000000000007bffffffffffffffffffffffffffffffffffffffffffffffffffffffff1916827bffffffffffffffffffffffffffffffffffffffffffffffffffffffff1916149050919050565b60008073ffffffffffffffffffffffffffffffffffffffff166002600084815260200190815260200160002060009054906101000a900473ffffffffffffffffffffffffffffffffffffffff1673ffffffffffffffffffffffffffffffffffffffff1614159050919050565b600033905090565b816004600083815260200190815260200160002060006101000a81548173ffffffffffffffffffffffffffffffffffffffff021916908373ffffffffffffffffffffffffffffffffffffffff160217905550808273ffffffffffffffffffffffffffffffffffffffff16610d6c8361079b565b73ffffffffffffffffffffffffffffffffffffffff167f8c5be1e5ebec7d5bd14f71427d1e84f3dd0314c0f7b2291e5b200ac8c7c3b92560405160405180910390a45050565b6000610dbd82610c85565b610dfc576040517f08c379a0000000000000000000000000000000000000000000000000000000008152600401610df3906122f1565b60405180910390fd5b6000610e078361079b565b90508073ffffffffffffffffffffffffffffffffffffffff168473ffffffffffffffffffffffffffffffffffffffff161480610e7657508373ffffffffffffffffffffffffffffffffffffffff16610e5e846104a4565b73ffffffffffffffffffffffffffffffffffffffff16145b80610e875750610e868185610b87565b5b91505092915050565b8273ffffffffffffffffffffffffffffffffffffffff16610eb08261079b565b73ffffffffffffffffffffffffffffffffffffffff1614610f06576040517f08c379a0000000000000000000000000000000000000000000000000000000008152600401610efd90612271565b60405180910390fd5b600073ffffffffffffffffffffffffffffffffffffffff168273ffffffffffffffffffffffffffffffffffffffff161415610f76576040517f08c379a0000000000000000000000000000000000000000000000000000000008152600401610f6d906122b1565b60405180910390fd5b610f8183838361168c565b610f8c600082610cf9565b6001600360008573ffffffffffffffffffffffffffffffffffffffff1673ffffffffffffffffffffffffffffffffffffffff1681526020019081526020016000206000828254610fdc91906125bd565b925050819055506001600360008473ffffffffffffffffffffffffffffffffffffffff1673ffffffffffffffffffffffffffffffffffffffff16815260200190815260200160002060008282546110339190612536565b92505081905550816002600083815260200190815260200160002060006101000a81548173ffffffffffffffffffffffffffffffffffffffff021916908373ffffffffffffffffffffffffffffffffffffffff160217905550808273ffffffffffffffffffffffffffffffffffffffff168473ffffffffffffffffffffffffffffffffffffffff167fddf252ad1be2c89b69c2b068fc378daa952ba7f163c4a11628f55a4df523b3ef60405160405180910390a46110f2838383611691565b505050565b6001816000016000828254019250508190555050565b600081600001549050919050565b6111b38282604051602401611131929190612221565b6040516020818303038152906040527f9710a9d0000000000000000000000000000000000000000000000000000000007bffffffffffffffffffffffffffffffffffffffffffffffffffffffff19166020820180517bffffffffffffffffffffffffffffffffffffffffffffffffffffffff8381831617835250505050611696565b5050565b600073ffffffffffffffffffffffffffffffffffffffff168273ffffffffffffffffffffffffffffffffffffffff161415611227576040517f08c379a000000000000000000000000000000000000000000000000000000000815260040161121e90612391565b60405180910390fd5b61123081610c85565b15611270576040517f08c379a000000000000000000000000000000000000000000000000000000000815260040161126790612291565b60405180910390fd5b61127c6000838361168c565b6001600360008473ffffffffffffffffffffffffffffffffffffffff1673ffffffffffffffffffffffffffffffffffffffff16815260200190815260200160002060008282546112cc9190612536565b92505081905550816002600083815260200190815260200160002060006101000a81548173ffffffffffffffffffffffffffffffffffffffff021916908373ffffffffffffffffffffffffffffffffffffffff160217905550808273ffffffffffffffffffffffffffffffffffffffff16600073ffffffffffffffffffffffffffffffffffffffff167fddf252ad1be2c89b69c2b068fc378daa952ba7f163c4a11628f55a4df523b3ef60405160405180910390a461138d60008383611691565b5050565b61139a82610c85565b6113d9576040517f08c379a00000000000000000000000000000000000000000000000000000000081526004016113d090612371565b60405180910390fd5b806006600084815260200190815260200160002090805190602001906114009291906119da565b505050565b8173ffffffffffffffffffffffffffffffffffffffff168373ffffffffffffffffffffffffffffffffffffffff161415611474576040517f08c379a000000000000000000000000000000000000000000000000000000000815260040161146b906122d1565b60405180910390fd5b80600560008573ffffffffffffffffffffffffffffffffffffffff1673ffffffffffffffffffffffffffffffffffffffff16815260200190815260200160002060008473ffffffffffffffffffffffffffffffffffffffff1673ffffffffffffffffffffffffffffffffffffffff16815260200190815260200160002060006101000a81548160ff0219169083151502179055508173ffffffffffffffffffffffffffffffffffffffff168373ffffffffffffffffffffffffffffffffffffffff167f17307eab39ab6107e8899845ad3d59bd9653f200f220920489ca2b5937696c318360405161156591906121e4565b60405180910390a3505050565b61157d848484610e90565b611589848484846116bf565b6115c8576040517f08c379a00000000000000000000000000000000000000000000000000000000081526004016115bf90612251565b60405180910390fd5b50505050565b606060405180602001604052806000815250905090565b60606115f082610c85565b61162f576040517f08c379a0000000000000000000000000000000000000000000000000000000008152600401611626906123f1565b60405180910390fd5b60006116396115ce565b905060008151116116595760405180602001604052806000815250611684565b8061166384611856565b604051602001611674929190612159565b6040516020818303038152906040525b915050919050565b505050565b505050565b60008151905060006a636f6e736f6c652e6c6f679050602083016000808483855afa5050505050565b60006116e08473ffffffffffffffffffffffffffffffffffffffff166119b7565b15611849578373ffffffffffffffffffffffffffffffffffffffff1663150b7a02611709610cf1565b8786866040518563ffffffff1660e01b815260040161172b9493929190612198565b602060405180830381600087803b15801561174557600080fd5b505af192505050801561177657506040513d601f19601f820116820180604052508101906117739190611db6565b60015b6117f9573d80600081146117a6576040519150601f19603f3d011682016040523d82523d6000602084013e6117ab565b606091505b506000815114156117f1576040517f08c379a00000000000000000000000000000000000000000000000000000000081526004016117e890612251565b60405180910390fd5b805181602001fd5b63150b7a0260e01b7bffffffffffffffffffffffffffffffffffffffffffffffffffffffff1916817bffffffffffffffffffffffffffffffffffffffffffffffffffffffff19161491505061184e565b600190505b949350505050565b6060600082141561189e576040518060400160405280600181526020017f300000000000000000000000000000000000000000000000000000000000000081525090506119b2565b600082905060005b600082146118d05780806118b99061270a565b915050600a826118c9919061258c565b91506118a6565b60008167ffffffffffffffff8111156118ec576118eb612840565b5b6040519080825280601f01601f19166020018201604052801561191e5781602001600182028036833780820191505090505b5090505b600085146119ab5760018261193791906125bd565b9150600a856119469190612753565b60306119529190612536565b60f81b81838151811061196857611967612811565b5b60200101907effffffffffffffffffffffffffffffffffffffffffffffffffffffffffffff1916908160001a905350600a856119a4919061258c565b9450611922565b8093505050505b919050565b6000808273ffffffffffffffffffffffffffffffffffffffff163b119050919050565b8280546119e6906126a7565b90600052602060002090601f016020900481019282611a085760008555611a4f565b82601f10611a2157805160ff1916838001178555611a4f565b82800160010185558215611a4f579182015b82811115611a4e578251825591602001919060010190611a33565b5b509050611a5c9190611a60565b5090565b5b80821115611a79576000816000905550600101611a61565b5090565b6000611a90611a8b84612491565b61246c565b905082815260208101848484011115611aac57611aab612874565b5b611ab7848285612665565b509392505050565b6000611ad2611acd846124c2565b61246c565b905082815260208101848484011115611aee57611aed612874565b5b611af9848285612665565b509392505050565b600081359050611b1081612d12565b92915050565b600081359050611b2581612d29565b92915050565b600081359050611b3a81612d40565b92915050565b600081519050611b4f81612d40565b92915050565b600082601f830112611b6a57611b6961286f565b5b8135611b7a848260208601611a7d565b91505092915050565b600082601f830112611b9857611b9761286f565b5b8135611ba8848260208601611abf565b91505092915050565b600081359050611bc081612d57565b92915050565b600060208284031215611bdc57611bdb61287e565b5b6000611bea84828501611b01565b91505092915050565b60008060408385031215611c0a57611c0961287e565b5b6000611c1885828601611b01565b9250506020611c2985828601611b01565b9150509250929050565b600080600060608486031215611c4c57611c4b61287e565b5b6000611c5a86828701611b01565b9350506020611c6b86828701611b01565b9250506040611c7c86828701611bb1565b9150509250925092565b60008060008060808587031215611ca057611c9f61287e565b5b6000611cae87828801611b01565b9450506020611cbf87828801611b01565b9350506040611cd087828801611bb1565b925050606085013567ffffffffffffffff811115611cf157611cf0612879565b5b611cfd87828801611b55565b91505092959194509250565b60008060408385031215611d2057611d1f61287e565b5b6000611d2e85828601611b01565b9250506020611d3f85828601611b16565b9150509250929050565b60008060408385031215611d6057611d5f61287e565b5b6000611d6e85828601611b01565b9250506020611d7f85828601611bb1565b9150509250929050565b600060208284031215611d9f57611d9e61287e565b5b6000611dad84828501611b2b565b91505092915050565b600060208284031215611dcc57611dcb61287e565b5b6000611dda84828501611b40565b91505092915050565b600060208284031215611df957611df861287e565b5b600082013567ffffffffffffffff811115611e1757611e16612879565b5b611e2384828501611b83565b91505092915050565b600060208284031215611e4257611e4161287e565b5b6000611e5084828501611bb1565b91505092915050565b611e62816125f1565b82525050565b611e7181612603565b82525050565b6000611e82826124f3565b611e8c8185612509565b9350611e9c818560208601612674565b611ea581612883565b840191505092915050565b6000611ebb826124fe565b611ec5818561251a565b9350611ed5818560208601612674565b611ede81612883565b840191505092915050565b6000611ef4826124fe565b611efe818561252b565b9350611f0e818560208601612674565b80840191505092915050565b6000611f2760328361251a565b9150611f3282612894565b604082019050919050565b6000611f4a60258361251a565b9150611f55826128e3565b604082019050919050565b6000611f6d601c8361251a565b9150611f7882612932565b602082019050919050565b6000611f9060248361251a565b9150611f9b8261295b565b604082019050919050565b6000611fb360198361251a565b9150611fbe826129aa565b602082019050919050565b6000611fd6602c8361251a565b9150611fe1826129d3565b604082019050919050565b6000611ff960388361251a565b915061200482612a22565b604082019050919050565b600061201c602a8361251a565b915061202782612a71565b604082019050919050565b600061203f60298361251a565b915061204a82612ac0565b604082019050919050565b6000612062602e8361251a565b915061206d82612b0f565b604082019050919050565b600061208560208361251a565b915061209082612b5e565b602082019050919050565b60006120a860318361251a565b91506120b382612b87565b604082019050919050565b60006120cb602c8361251a565b91506120d682612bd6565b604082019050919050565b60006120ee602f8361251a565b91506120f982612c25565b604082019050919050565b600061211160218361251a565b915061211c82612c74565b604082019050919050565b600061213460318361251a565b915061213f82612cc3565b604082019050919050565b6121538161265b565b82525050565b60006121658285611ee9565b91506121718284611ee9565b91508190509392505050565b60006020820190506121926000830184611e59565b92915050565b60006080820190506121ad6000830187611e59565b6121ba6020830186611e59565b6121c7604083018561214a565b81810360608301526121d98184611e77565b905095945050505050565b60006020820190506121f96000830184611e68565b92915050565b600060208201905081810360008301526122198184611eb0565b905092915050565b6000604082019050818103600083015261223b8185611eb0565b905061224a602083018461214a565b9392505050565b6000602082019050818103600083015261226a81611f1a565b9050919050565b6000602082019050818103600083015261228a81611f3d565b9050919050565b600060208201905081810360008301526122aa81611f60565b9050919050565b600060208201905081810360008301526122ca81611f83565b9050919050565b600060208201905081810360008301526122ea81611fa6565b9050919050565b6000602082019050818103600083015261230a81611fc9565b9050919050565b6000602082019050818103600083015261232a81611fec565b9050919050565b6000602082019050818103600083015261234a8161200f565b9050919050565b6000602082019050818103600083015261236a81612032565b9050919050565b6000602082019050818103600083015261238a81612055565b9050919050565b600060208201905081810360008301526123aa81612078565b9050919050565b600060208201905081810360008301526123ca8161209b565b9050919050565b600060208201905081810360008301526123ea816120be565b9050919050565b6000602082019050818103600083015261240a816120e1565b9050919050565b6000602082019050818103600083015261242a81612104565b9050919050565b6000602082019050818103600083015261244a81612127565b9050919050565b6000602082019050612466600083018461214a565b92915050565b6000612476612487565b905061248282826126d9565b919050565b6000604051905090565b600067ffffffffffffffff8211156124ac576124ab612840565b5b6124b582612883565b9050602081019050919050565b600067ffffffffffffffff8211156124dd576124dc612840565b5b6124e682612883565b9050602081019050919050565b600081519050919050565b600081519050919050565b600082825260208201905092915050565b600082825260208201905092915050565b600081905092915050565b60006125418261265b565b915061254c8361265b565b9250827fffffffffffffffffffffffffffffffffffffffffffffffffffffffffffffffff0382111561258157612580612784565b5b828201905092915050565b60006125978261265b565b91506125a28361265b565b9250826125b2576125b16127b3565b5b828204905092915050565b60006125c88261265b565b91506125d38361265b565b9250828210156125e6576125e5612784565b5b828203905092915050565b60006125fc8261263b565b9050919050565b60008115159050919050565b60007fffffffff0000000000000000000000000000000000000000000000000000000082169050919050565b600073ffffffffffffffffffffffffffffffffffffffff82169050919050565b6000819050919050565b82818337600083830152505050565b60005b83811015612692578082015181840152602081019050612677565b838111156126a1576000848401525b50505050565b600060028204905060018216806126bf57607f821691505b602082108114156126d3576126d26127e2565b5b50919050565b6126e282612883565b810181811067ffffffffffffffff8211171561270157612700612840565b5b80604052505050565b60006127158261265b565b91507fffffffffffffffffffffffffffffffffffffffffffffffffffffffffffffffff82141561274857612747612784565b5b600182019050919050565b600061275e8261265b565b91506127698361265b565b925082612779576127786127b3565b5b828206905092915050565b7f4e487b7100000000000000000000000000000000000000000000000000000000600052601160045260246000fd5b7f4e487b7100000000000000000000000000000000000000000000000000000000600052601260045260246000fd5b7f4e487b7100000000000000000000000000000000000000000000000000000000600052602260045260246000fd5b7f4e487b7100000000000000000000000000000000000000000000000000000000600052603260045260246000fd5b7f4e487b7100000000000000000000000000000000000000000000000000000000600052604160045260246000fd5b600080fd5b600080fd5b600080fd5b600080fd5b6000601f19601f8301169050919050565b7f4552433732313a207472616e7366657220746f206e6f6e20455243373231526560008201527f63656976657220696d706c656d656e7465720000000000000000000000000000602082015250565b7f4552433732313a207472616e736665722066726f6d20696e636f72726563742060008201527f6f776e6572000000000000000000000000000000000000000000000000000000602082015250565b7f4552433732313a20746f6b656e20616c7265616479206d696e74656400000000600082015250565b7f4552433732313a207472616e7366657220746f20746865207a65726f2061646460008201527f7265737300000000000000000000000000000000000000000000000000000000602082015250565b7f4552433732313a20617070726f766520746f2063616c6c657200000000000000600082015250565b7f4552433732313a206f70657261746f7220717565727920666f72206e6f6e657860008201527f697374656e7420746f6b656e0000000000000000000000000000000000000000602082015250565b7f4552433732313a20617070726f76652063616c6c6572206973206e6f74206f7760008201527f6e6572206e6f7220617070726f76656420666f7220616c6c0000000000000000602082015250565b7f4552433732313a2062616c616e636520717565727920666f7220746865207a6560008201527f726f206164647265737300000000000000000000000000000000000000000000602082015250565b7f4552433732313a206f776e657220717565727920666f72206e6f6e657869737460008201527f656e7420746f6b656e0000000000000000000000000000000000000000000000602082015250565b7f45524337323155524953746f726167653a2055524920736574206f66206e6f6e60008201527f6578697374656e7420746f6b656e000000000000000000000000000000000000602082015250565b7f4552433732313a206d696e7420746f20746865207a65726f2061646472657373600082015250565b7f45524337323155524953746f726167653a2055524920717565727920666f722060008201527f6e6f6e6578697374656e7420746f6b656e000000000000000000000000000000602082015250565b7f4552433732313a20617070726f76656420717565727920666f72206e6f6e657860008201527f697374656e7420746f6b656e0000000000000000000000000000000000000000602082015250565b7f4552433732314d657461646174613a2055524920717565727920666f72206e6f60008201527f6e6578697374656e7420746f6b656e0000000000000000000000000000000000602082015250565b7f4552433732313a20617070726f76616c20746f2063757272656e74206f776e6560008201527f7200000000000000000000000000000000000000000000000000000000000000602082015250565b7f4552433732313a207472616e736665722063616c6c6572206973206e6f74206f60008201527f776e6572206e6f7220617070726f766564000000000000000000000000000000602082015250565b612d1b816125f1565b8114612d2657600080fd5b50565b612d3281612603565b8114612d3d57600080fd5b50565b612d498161260f565b8114612d5457600080fd5b50565b612d608161265b565b8114612d6b57600080fd5b5056fea2646970667358221220e535b8a2a7835f32e57b60ad81485919ebb45c4a4fadb5410fab4b589ca6748b64736f6c63430008070033",
  "linkReferences": {},
  "deployedLinkReferences": {}
}